:020000040800F2
:1000000000500020613E0008ED2E0008EF2E000891
:10001000F12E0008F32E0008F52E00080000000065
:10002000000000000000000000000000F72E0008A3
:10003000F92E000800000000FB2E0008FD2E00082D
:10004000A93E0008A93E0008A93E0008A93E0008F4
:10005000A93E0008A93E0008A93E0008A93E0008E4
:10006000A93E0008A93E0008A93E0008A93E0008D4
:10007000A93E0008A93E0008A93E0008A93E0008C4
:10008000A93E0008A93E0008A93E0008A93E0008B4
:10009000012F0008A93E0008A93E0008A93E00085B
:1000A000A93E0008A93E0008A93E0008A93E000894
:1000B000A93E0008A93E0008A93E0008A93E000884
:1000C000A93E0008A93E0008A93E0008A93E000874
:1000D000A93E0008A93E0008A93E0008A93E000864
:1000E000A93E0008A93E0008A93E00080000000043
:1000F0000000000000000000000000000000000000
:0C01000000000000000000005FF808F1A3
:10010C0010B5054C237833B9044B13B10448AFF345
:10011C0000800123237010BD20010020000000008E
:10012C002C3F000808B5034B1BB103490348AFF340
:10013C00008008BD00000000240100202C3F0008B6
:10014C0010F8012B11F8013B012A28BF9A42F7D075
:10015C00D01A7047D0400B1CD1409C46203AD3405B
:10016C0018435242634693401843704738B50E4BC0
:10017C00054618784FF47A73B3FBF0F30B4A10680A
:10018C00B0FBF3F000F09EF8044658B90F2D09D8D7
:10019C00024629464FF0FF3000F054F8044B20463D
:1001AC001D6038BD012038BD00000020AC000020CF
:1001BC0004000020074A08B51368032043F010031D
:1001CC00136000F02DF80020FFF7D0FF02F066FE60
:1001DC00002008BD00200240034A044B11681B7824
:1001EC000B441360704700BFB805002000000020CE
:1001FC00014B1868704700BFB805002038B504469D
:10020C00FFF7F6FF0546631C1EBF044B1B78E41872
:10021C00FFF7EEFF401B8442FAD838BD00000020E7
:10022C00074A0002D36800F4E06023F4E0631B0487
:10023C001B0C43F0BF6343F400330343D36070479C
:10024C0000ED00E0174B30B5DC68C4F30224C4F1B8
:10025C000703251D042B28BF0423062D4FF0010591
:10026C0098BF002405FA03F303F1FF3388BF033C66
:10027C001940A14005FA04F4013C2240002842EA4E
:10028C0001024FEA0212AFBF00F16040064B00F0D2
:10029C000F00D2B2A5BFD2B200F561401A5480F85B
:1002AC00002330BD00ED00E014ED00E00123420915
:1002BC0000F01F0003FA00F0014B43F822007047D6
:1002CC0000E100E00138B0F1807F0AD2F021064B4A
:1002DC00064A586082F823100020072298601A60A2
:1002EC0070470120704700BF10E000E000ED00E017
:1002FC00114AD36813F0100305D01049CB6943F0B1
:10030C000203CB611023D268500706D50B4943F08A
:10031C000403CA6942F00102CA61074AD169C907DC
:10032C0008D50648C16941F00401C161D16921F0C9
:10033C000101D161D360704700200240C00500204C
:10034C00064B186910F0800007D0054A5A6002F17C
:10035C0088325A601869C0F3C01070470020024000
:10036C0023016745034A0020136943F0800313619E
:10037C00704700BF00200240F8B50646FFF738FF73
:10038C00114C07462546E368D80712D4E368990652
:10039C0044BF2023E360EB68DA0606D4EB69DB0785
:1003AC0003D4E86810F0040002D0FFF7A1FF01208D
:1003BC00F8BD731CE7D00EB90320F8BDFFF718FF8A
:1003CC00C01B8642DFD2F7E7002002402DE9F84F30
:1003DC001F4C9946237E0546012B0F46904633D081
:1003EC0001234CF250302376FFF7C6FF40BB012DA2
:1003FC0003D0022D0CBF022504250026B246DFF8DF
:10040C0054B0320140464946FFF7A4FEC4F81CA084
:10041C00DBF8103080B243F00103CBF8103027F832
:10042C0016004CF25030FFF7A7FFDBF8103023F02A
:10043C000103CBF8103018B90136F3B29D42E0D865
:10044C0000232376BDE8F88F0220BDE8F88F00BFAB
:10045C00C0050020002002400022064BDA61064B4A
:10046C001A6942F004021A611A6942F040021A61D8
:10047C00704700BFC0050020002002400022064B40
:10048C00DA61064B1A6942F002021A6158611A6964
:10049C0042F040021A617047C00500200020024063
:1004AC002DE9F041234D07462B7E8846012B3DD08C
:1004BC00012403682C76022B4CF2503013D1FFF739
:1004CC005BFF20B1012000232B76BDE8F081FFF704
:1004DC00C3FF4CF25030FFF74FFF174A136923F05C
:1004EC0004031361EFE7FFF747FF0028EAD14FF051
:1004FC00FF33C8F800302046BE680F4CFA68BB6862
:10050C0003EB82239E42DED23046FFF7B7FF4CF25C
:10051C005030FFF731FF236923F00203236110B140
:10052C00C8F80060CFE706F58066E7E70220BDE873
:10053C00F08100BFC0050020002002402DE9F041F1
:10054C00044686B0002860D090F8293403F0FF02EE
:10055C001BB980F8282402F021FD254603236E46A2
:10056C0055F8100B84F8293400F0FEFE0FCD0FC6A1
:10057C002B6804F10408336098E80E00206800F042
:10058C00E3FE0021206800F0F9FE002123462246FC
:10059C000126084604F1100582F8281091860131D5
:1005AC000F2982F8296082F82B009063D0631064C5
:1005BC0002F12002F0D10022174683F828229A86F5
:1005CC0001320F2A83F8297283F82B72C3F8387220
:1005DC00C3F83C72C3F8407203F12003EDD16E46B0
:1005EC000FCD0FC62B68336098E80E00206800F022
:1005FC00C7FE012384F82470206884F8293401F0A4
:10060C009BF9002006B0BDE8F0810120FAE790F8D4
:10061C00283410B5012B04460ED0012180F8281483
:10062C0002F0EDFD206801F085F9206800F093FEE2
:10063C00002084F8280410BD022010BD90F8282456
:10064C0010B5012A04460BD0012280F8282484F826
:10065C002410006801F068F9002084F8280410BD0B
:10066C00022010BD38B5044648B2002801F07F05C1
:10067C00B5BF04EB451104EB4111283101F50A71AA
:10068C00C00F0D704870CB7094F828340A61012BA0
:10069C0009D00123206884F8283400F091FE002052
:1006AC0084F8280438BD022038BD4BB2002B01F071
:1006BC007F02B5BF00EB421100EB4111283101F56F
:1006CC000A71DB0F10B50A704B7090F82834044691
:1006DC00012B09D0012380F82834006800F0E2FFD8
:1006EC00002084F8280410BD022010BD70B500262F
:1006FC0001F07F014D01441984F8281205F50A71A7
:10070C000144C4F83C22C4F84032C4F8446284F872
:10071C002962006801F02AF9304670BD01F00F0122
:10072C0000EB4111B1F84402704701F07F0170B544
:10073C004D01441923640026012384F8281005F187
:10074C0028010144E263666484F82930006801F0F2
:10075C000DF9304670BD00002DE9F34704460068E2
:10076C0001F0ECF8000400F19880206801F0E6F844
:10077C0041050FD522682046B2F8443023F480633B
:10078C001B041B0CA2F8443002F03FFC0021204655
:10079C00FFF754FF206801F0D1F8470408D5226810
:1007AC00B2F8443023F480431B041B0CA2F84430F1
:1007BC00206801F0C3F8860408D52268B2F84430EA
:1007CC0023F400531B041B0CA2F84430206801F0E6
:1007DC00B5F8C5041CD522682046B2F8403023F089
:1007EC0004031B041B0CA2F84030B2F8403023F079
:1007FC0008031B041B0CA2F8403002F029FC2268F1
:10080C00B2F8443023F480531B041B0CA2F8443080
:10081C00206801F093F800051DD52068B0F8403031
:10082C009BB243F00803A0F84030B0F8443023F4F6
:10083C0000631B041B0CA0F84430B0F840309BB292
:10084C0043F00403A0F8403001F078F8C10402D45E
:10085C00204602F0EDFB206801F070F882050BD504
:10086C0022682046B2F8443023F400731B041B0C9E
:10087C00A2F8443002F0C5FB206801F05FF8C30514
:10088C0008D52268B2F8443023F480731B041B0C87
:10089C00A2F8443002B0BDE8F0870023C84FDFF85F
:1008AC002483DFF82493ADF80430ADF806302068CB
:1008BC00B0F844309BB2ADF804301B047FF555AF53
:1008CC00BDF8045015F00F0540F0AB80BDF80410D6
:1008DC00038811F010019BB226D13B400380B0F885
:1008EC00503094F828209BB203EBC20300EB43007A
:1008FC00D0F80434E26BC3F3090363641344E36379
:10090C00204602F077FB94F82430002BCFD0226CD9
:10091C00002ACCD194F82430216843F08003A1F84C
:10092C004C3084F82420C2E7ADF80630BDF8063010
:10093C001A051FD5B0F8503094F828229BB203EB5F
:10094C00C20300EB4303D3F80C34B4F82C22C3F3EA
:10095C000903C4F8443204F22C4101F007F922686F
:10096C002046138823F070031B051B0D138002F027
:10097C0033FB9CE7BDF806301B0498D5038823F0A5
:10098C0070031B051B0D0380B0F8503094F828221F
:10099C009BB203EBC20300EB4303D3F80C34C3F359
:1009AC000903C4F8443263B1B4F82C22D4F83C12D5
:1009BC0001F0DCF8D4F83C32D4F844221344C4F8E7
:1009CC003C320021204602F00DFB2268D4F838524C
:1009DC00B2F850103E2D89B201F1060102F580608B
:1009EC0017D9C5F34F13EE0604BF03F1FF339BB2C7
:1009FC0049EA83239BB240F8113013889BB203EA77
:100A0C00080383F4405343F4004343F08003138002
:100A1C004DE7C5F34F03ED0744BF01339BB29B0277
:100A2C00E8E730F825309BB2ADF80630BDF806305B
:100A3C0019043FD530F825304FEA451A23F07003DE
:100A4C001B051B0D20F8253004EB0A0191F83232FE
:100A5C00002B74D1B0F8503091F828229BB2063399
:100A6C0003EBC20300EB4303D3F80064C6F309069F
:100A7C0036B1B1F82C223346D1F83C1201F076F89D
:100A8C0004EB0A01D1F84432D1F83C223344C1F8CA
:100A9C004432D1F840323244C1F83C2223B1D1F86F
:100AAC003802864280F08680A2449AF828122046AA
:100ABC0002F098FABDF806301A067FF5F8AE2068F9
:100ACC006E0130F82530A1199BB23B4020F825303F
:100ADC0091F832300235002B78D1B0F8503091F8C3
:100AEC0028209BB2023303EBC20300EB4303D3F881
:100AFC00003404EB4515C3F309036B601BB18A8DFD
:100B0C00C96B00F021FF22682644B2F8503096F8E9
:100B1C0028109BB2023303EBC10302EB4303D3F85F
:100B2C000024F36BC2F3090272641A44336CF2634F
:100B3C002046002B40F0858002F05CFAB7E691F875
:100B4C00283230F82320DB0012F4804FB0F850200C
:100B5C0092B221D00232134400EB4303D3F8006469
:100B6C00C6F3090636B13346B1F82E22D1F83C1241
:100B7C0000F0FCFF04EB0A0393F82812226832F809
:100B8C00213023F0F0031B051B0D43F4004343F00D
:100B9C00C00322F8213073E70632134400EB430301
:100BAC00D3F80064C6F30906002EE3D03346B1F83F
:100BBC003022DBE791F828122046FFF797FD79E702
:100BCC000F8FFFFF8FBFFFFF0080FFFF91F82830D2
:100BDC0030F82320DB0012F0400FB0F8502092B216
:100BEC0020D00232134400EB4303D3F8003404EB5F
:100BFC004515C3F309036B601BB1CA8DC96B00F0BB
:100C0C00A3FEA31993F82810226832F8213023F0A0
:100C1C00F0031B051B0D43F4404343F0800322F803
:100C2C00213070E70632134400EB4303D3F8003451
:100C3C0004EB4515C3F309036B60002BE1D00A8E5E
:100C4C00DCE7FFF772FD32E6012238B54BB2002B20
:100C5C0001F07F05B5BF00EB451100EB41112831C8
:100C6C0001F50A71DB0FEDB28A700D704B7090F8C4
:100C7C002834044693420ED080F82824006800F0F3
:100C8C00DFFD25B904F22C41206800F05BFE00204A
:100C9C0084F8280438BD022038BD38B500244BB286
:100CAC00002B01F07F02B5BF00EB421100EB4111AC
:100CBC00283101F50A71DB0F8C700A704B7090F8BB
:100CCC0028340546012B09D0012380F8283400680C
:100CDC0000F0E8FD85F82844204638BD022038BDD8
:100CEC0090F8283410B5012B044611D0012380F85C
:100CFC0028340B0608D501F07F01006800F05BFB7F
:100D0C00002084F8280410BD006800F056FBF7E7BB
:100D1C00022010BD11F0800F1BBF01F07F0100EB12
:100D2C00411000EB4110283008BF00F50A701AB9C9
:100D3C0082728380002070470122C3801B0C827258
:100D4C000381F7E7064A0129136923F004031361B1
:100D5C0001D130BF704740BF20BF20BF704700BFDC
:100D6C0000ED00E003682DE9F341DB07054610D4E4
:100D7C002B689F075ED42B68190700F195802B68B0
:100D8C005A0700F1BF80EA69002A40F02D8100204B
:100D9C0014E0904C636803F00C03042B07D06368D9
:100DAC0003F00C03082B0CD16368DE0309D5236810
:100DBC009C03DDD56B68002BDAD1012002B0BDE8B5
:100DCC00F0816B68B3F5803F10D1236843F4803316
:100DDC002360FFF70DFA064623689803C8D4FFF783
:100DEC0007FA801B6428F7D90320E7E79BB923682F
:100DFC0023F480332360236823F480232360FFF7DC
:100E0C00F7F9064623689903B2D5FFF7F1F9801B71
:100E1C006428F7D9E8E7B3F5A02F236803D143F48E
:100E2C0080232360D1E723F480332360236823F4E9
:100E3C008023CDE7674C636813F00C0F07D0636811
:100E4C0003F00C03082B10D16368DA030DD423686C
:100E5C009B0702D52B69012BAFD123686A6923F05C
:100E6C00F80343EAC203236085E72A695A4B6AB147
:100E7C0001221A60FFF7BCF9064623689F07ECD4E1
:100E8C00FFF7B6F9801B0228F7D9ADE71A60FFF718
:100E9C00AFF90646236898077FF56DAFFFF7A8F901
:100EAC00801B0228F6D99FE7AA694A4C4B4BDAB152
:100EBC0001221A60FFF79CF90646636A9B070DD561
:100ECC004FF4FA52464B1B68B3FBF2F3019300BF8D
:100EDC00019B5A1E0192002BF9D150E7FFF788F9BC
:100EEC00801B0228E9D97FE71A60FFF781F90646D3
:100EFC00636A9F077FF543AFFFF77AF9801B0228DF
:100F0C00F6D971E7334CE369D80024D40127E3699F
:100F1C0043F08053E361E36903F080530093009B3B
:100F2C00304E3368D90518D5EB68012B26D1236ACE
:100F3C0043F001032362FFF75BF941F288368046E8
:100F4C00236A9B073FD5002F3FF41DAFE36923F0C5
:100F5C008053E36117E70027E2E7336843F48073BB
:100F6C003360FFF745F980463368DA05DCD4FFF7C8
:100F7C003FF9A0EB08006428F6D935E7ABB9236A32
:100F8C0041F2883823F001032362236A23F004031F
:100F9C002362FFF72DF90646236A9807D3D5FFF78E
:100FAC0027F9801B4045F7D91EE7052B236A03D18F
:100FBC0043F004032362BAE723F001032362236A9C
:100FCC0023F00403B6E7FFF713F9A0EB0800B042D7
:100FDC00B6D909E7001002400000424280044242A8
:100FEC00AC00002000700040224C636803F00C033E
:100FFC00082B3FF4E2AE00231F4E022A33602BD1A4
:10100C00FFF7F6F80746236899011FD42B6AB3F54E
:10101C00803F05D16268A96822F400320A436260FD
:10102C00696A62680B4322F47412134363600123F0
:10103C003360FFF7DDF8054623689A013FF5A7AE4C
:10104C00FFF7D6F8401B0228F6D9CDE6FFF7D0F80B
:10105C00C01B0228D7D9C7E6FFF7CAF80546236894
:10106C009B017FF594AEFFF7C3F8401B0228F6D91D
:10107C00BAE600BF001002406000424230B5194B86
:10108C0087B002AC03F11005224618685968083382
:10109C0003C2AB421446F7D101238DF8043002236E
:1010AC0011498DF805304B6803F00C02082A17D152
:1010BC00C3F3834206A80244DB0312F8102C0CD5B0
:1010CC004B680A48C3F34043504306AA134413F831
:1010DC00143CB0FBF3F007B030BD05485043FAE7C1
:1010EC000248F8E7443F00080010024000127A0062
:1010FC0000093D00544A2DE9F0411368054603F000
:10110C0007038B420E462AD329688C0734D4CA07AE
:10111C0047D44D4A136803F007039E42C0F0828007
:10112C002A684A4C12F0040F40F08780130706D54A
:10113C0063682A6923F4605343EAC2036360FFF7D0
:10114C009DFF6368424AC3F30313D35CD840414B01
:10115C0018600020FFF70AF80020BDE8F081136842
:10116C0023F007030B431360136803F00703994242
:10117C00CAD00120BDE8F081344B11F0040F1EBF22
:10118C005A6842F4E0625A60080742BF5A6842F457
:10119C0060525A605A68A86822F0F00202435A6002
:1011AC00B5E76A68294C012A23681CD113F4003F67
:1011BC00DFD0636841F2883823F003031343636084
:1011CC00FFF716F86B680746012B14D1636803F020
:1011DC000C03042B9DD0FFF70BF8C01B4045F5D931
:1011EC000320BDE8F081022A02D113F0007FDFE773
:1011FC0013F0020FDCE7022B0FD1636803F00C0332
:10120C00082B86D0FEF7F4FFC01B4045F5D9E7E765
:10121C00FEF7EEFFC01B4045E2D8636813F00C0FDD
:10122C00F6D176E7136823F0070333431360136892
:10123C0003F007039E429CD172E76368E96823F4CC
:10124C00E0630B43636071E7002002400010024032
:10125C00853F0008AC00002003682DE9F341D90755
:10126C00054620D5354CE369DA0032D40127E36911
:10127C0043F08053E361E36903F080530193019BD6
:10128C002F4E3368DB0526D5236A13F4407336D111
:10129C00236A6A6823F44073134323621FB1E36922
:1012AC0023F08053E3612868830706D5234AA96895
:1012BC00536823F440430B43536010F010001BD0D1
:1012CC001E4AE9685368002023F480030B435360E3
:1012DC0012E00027D4E7336843F480733360FEF7E1
:1012EC0087FF80463368D805CED4FEF781FFA0EB8C
:1012FC0008006428F6D9032002B0BDE8F0816A68C2
:10130C0002F440729342C3D001200E4A236A10604B
:10131C00002023F4407110602162D907B8D5FEF784
:10132C0067FF41F288380646236A9A07B0D4FEF765
:10133C005FFF801B4045F7D9DDE700BF001002407E
:10134C00007000404004424284B001A880E80E00C6
:10135C0004B000207047B0F840309BB243F43F43D8
:10136C00A0F8403000207047B0F8403023F474539C
:10137C005B045B0CA0F840300020704700207047E5
:10138C0084B010B503AC84E80E00BDE81040002218
:10139C000123A0F84030A0F84020A0F84420A0F889
:1013AC005020B0F8403004B09BB243F43F43A0F857
:1013BC0040301046704700207047002070470000F6
:1013CC0070B5CB780A78032B0FD8DFE803F00264F2
:1013DC00505930F8223023F4EC4323F070031B04F3
:1013EC001B0C43F4007320F8223040F60F730C787A
:1013FC0030F8242044F4004545F080051A402A4377
:10140C0020F824208A7A0D78002A40F097804C78B6
:10141C008A88002C4AD0B0F850405208A4B204EB91
:10142C00C50400EB44045200C4F800240C7830F8D6
:10143C002420520608D530F82420134043F40043EE
:10144C0043F0C00320F824300A7830F8223023F41B
:10145C00E04323F040031B041B0C83F0200343F4F4
:10146C00004343F0800320F82230002070BD30F898
:10147C00223023F4EC4323F070031B041B0CB2E763
:10148C0030F8223023F4EC4323F070031B041B0CC4
:10149C0043F4C063A7E730F8223023F4EC4323F085
:1014AC0070031B041B0C43F480639CE7B0F85030B2
:1014BC0052089BB2043303EBC503520000F5806461
:1014CC0044F81320B0F850200D6992B20B78063214
:1014DC003E2D02EBC30229D9C5F34F16EB0604BF10
:1014EC0006F1FF339EB26E4B43EA86239BB244F85F
:1014FC0012300A7830F822305E040BD530F82230E6
:10150C0023F0F0031B051B0D43F4404343F0800311
:10151C0020F822300A7830F8223023F4804323F06C
:10152C0070031B041B0C83F4405398E7C5F34F0363
:10153C00ED0744BF01339BB29B02D7E730F825205F
:10154C0022F4F8721205120D42F4014242F08002AC
:10155C0020F82520B0F850200C7892B202EBC4028F
:10156C00CC8800F580656408640045F81240B0F83A
:10157C0050200C7892B2043202EBC4020C8964083D
:10158C00640045F812404A780C78002A47D130F8AC
:10159C002420550408D530F82420134043F440434C
:1015AC0043F0800320F824300A7830F822305C06AF
:1015BC000BD530F8223023F0F0031B051B0D43F440
:1015CC00004343F0C00320F822300A7830F8223070
:1015DC0023F0F0031B051B0D43F4004343F0C00341
:1015EC0020F8223048F280020C7830F8243023F4B2
:1015FC00804323F070031B041B0C83F440531343F0
:10160C0020F82430097830F8213023F4E04323F01B
:10161C0040031B041B0C134320F8213025E730F842
:10162C002420520408D530F82420134043F44043BE
:10163C0043F0800320F824300A7830F822305B061F
:10164C000BD530F8223023F0F0031B051B0D43F4AF
:10165C00004343F0C00320F822300A7830F82230DF
:10166C0023F0F0031B051B0D43F4404343F08003B0
:10167C0020F8223048F280020C7830F8243023F421
:10168C00E04323F040031B041B0C134320F82430CD
:10169C00097830F8213023F4804323F07003B8E745
:1016AC000080FFFF10B58C7A4A780B78CCBB02B364
:1016BC0030F8232052060BD530F8232022F0F0020C
:1016CC001205120D42F4004242F0C00220F8232011
:1016DC000A7830F8223023F4E04323F040031B0453
:1016EC001B0C43F4004343F0800320F8223000200D
:1016FC0010BD30F8232054040BD530F8232022F0F1
:10170C00F0021205120D42F4404242F0800220F821
:10171C0023200A7830F8223023F4804323F070031E
:10172C00DDE7002A48D130F8232052040BD530F8DD
:10173C00232022F0F0021205120D42F4404242F036
:10174C00800220F823200A7830F822305C060BD572
:10175C0030F8223023F0F0031B051B0D43F400433B
:10176C0043F0C00320F822300A7830F8223023F0FE
:10177C00F0031B051B0D43F4004343F0C00320F89A
:10178C00223048F280020C7830F8243023F4804365
:10179C0023F070031B041B0C134320F8243009782E
:1017AC0030F8213023F4E04323F040031B041B0CDE
:1017BC00134320F821309AE730F8232052040BD53C
:1017CC0030F8232022F0F0021205120D42F44042B0
:1017DC0042F0800220F823200A7830F822305B0691
:1017EC000BD530F8223023F0F0031B051B0D43F40E
:1017FC00004343F0C00320F822300A7830F822303E
:10180C0023F0F0031B051B0D43F4404343F080030E
:10181C0020F8223048F280020C7830F8243023F47F
:10182C00E04323F040031B041B0C134320F824302B
:10183C00097830F8213023F4804323F07003B5E7A6
:10184C000A788AB9038823F4804323F040031B04ED
:10185C001B0C83F4805383F0100343F4004343F0D8
:10186C0080030380002070474B7883B130F822301E
:10187C0023F4E04323F040031B041B0C83F0100300
:10188C0043F4004343F0800320F82230EAE730F8B9
:10189C00223023F4804323F070031B041B0C83F4CD
:1018AC008053EDE74B780A7813B330F822305B069F
:1018BC000BD530F8223023F0F0031B051B0D43F43D
:1018CC00004343F0C00320F822300A7830F822306D
:1018DC0023F4E04323F040031B041B0C83F0300380
:1018EC0043F4004343F0800320F82230002070477B
:1018FC0030F822305B040BD530F8223023F0F003A3
:10190C001B051B0D43F4404343F0800320F82230A9
:10191C000A7830F8223023F4804323F070031B0440
:10192C001B0C83F44053DBE711B98023A0F84C3037
:10193C00002070470020704700207047B0F844002A
:10194C0080B270470020704710B50024013300F5B9
:10195C0080605B1000EB4202A34200D110BD31F855
:10196C00020B22F824000134F6E7000070B50E4695
:10197C008A694978054601293369B07A66D19A4259
:10198C001C469BBF00231446D21AB36188BFB261B8
:10199C00A3B210BBB28871692846FFF7D5FFB5F822
:1019AC00503032789BB2023303EBC20305EB430396
:1019BC00C3F80044327835F8223023F4E04323F0A6
:1019CC0040031B041B0C83F0300343F4004343F02F
:1019DC00800325F82230002070BD327835F82210B3
:1019EC00D20011F0400FB5F8501089B21AD0023164
:1019FC000A4405EB4202C2F8004432897169284658
:101A0C00FFF7A2FF737832789BB935F8223023F0B8
:101A1C00F0031B051B0D43F4004343F0C00325F8F2
:101A2C002230C7E70A4405EB4202C2F80444F288AC
:101A3C00E4E7012BBED135F8223023F0F0031B056F
:101A4C001B0D43F4404343F08003E8E79A4293BFF5
:101A5C000023D21AB261B36198BF1346327870BBBF
:101A6C00B5F850103E2B89B201F1060101EBC20111
:101A7C0005F5806018D9C3F34F12DB0604BF02F1E1
:101A8C00FF339AB2384B43EA82239BB240F81130B1
:101A9C00327835F8223023F4804323F070031B0492
:101AAC001B0C83F4405390E7C3F34F02DC0744BF95
:101ABC00013292B2920292B240F81120E8E7B9B921
:101ACC00B5F850103E2B89B201F1020101EBC201B5
:101ADC0005F5806428D9C3F34F10DA0604BF00F172
:101AEC00FF3290B2204A42EA802292B244F811208E
:101AFC00727831785ABBB5F850203E2B92B202F175
:101B0C00060202EBC10205F5806015D9C3F34F1133
:101B1C00DC0604BF01F1FF3399B2134B43EA812376
:101B2C009BB240F81230B3E7C3F34F02D80744BF5F
:101B3C00013292B29202D8E7C3F34F01DB0744BFE4
:101B4C00013189B2890289B240F81210A0E7012A4A
:101B5C009ED1B5F8502092B2023202EBC10205EBD5
:101B6C004202C2F8003493E70080FFFF10B5002456
:101B7C00013300F580605B1000EB4202A34200D100
:101B8C0010BD52F8240021F814000134F6E70000CF
:101B9C00202303800048704760000020202303802E
:101BAC000048704740000020202303800048704705
:101BBC008C0000200A23038000487047800000201E
:101BCC00037C10B50446C3B94FF400730222012103
:101BDC0001F088FA4FF4007302228121204601F0B3
:101BEC0081FA40F26C4001F005FBC4F8180258B1C0
:101BFC00204600F0BBF8002010BD4023022201213A
:101C0C0001F070FA4023E7E7012010BD10B504463F
:101C1C00012101F077FA8121204601F073FA204668
:101C2C0000F0CFF8D4F8180220B101F0E7FA002345
:101C3C00C4F81832002010BD2DE9F0410B7806468F
:101C4C0013F060040D46D0F818822DD0202C4AD108
:101C5C004A78FE2A05D0FF2A19D000F07AFE022419
:101C6C001FE04C8884B9CF88012F0DD11A060BD5F3
:101C7C00D0F81C329B6998473A46C8F80000414698
:101C8C00304600F08DFE0CE029463046E5E74A88E8
:101C9C00002AF9D1CC88002CF6D11B06F4D400F024
:101CAC0085F82046BDE8F0814F780A2F1DD00B2F08
:101CBC001FD0012FF5D1097901F032FA297930467C
:101CCC0001F020FA95F90430002B337C17DAA3B914
:101CDC004FF4007302228121304601F003FA297976
:101CEC00304600F015F90024DBE7012208F104016D
:101CFC00C7E78B78C8F80430D3E74023EAE723B969
:101D0C004FF4007302223946E6E74023FAE708B5A0
:101D1C0000F078F8002008BD08B500F08FF800201E
:101D2C0008BD09B1C0F81C120020704770B5D0F87E
:101D3C001842054694F818343BB9D4F8143423B13E
:101D4C00637A13B9012101F0F9F98121284601F0D8
:101D5C00F5F9637A022B08D104F20C422846BDE84F
:101D6C0070401F23012101F031BA70BD70B5D0F85D
:101D7C001852044600202872687285F85D0485F8B4
:101D8C005C04D4F81C321B6898470121204601F0F2
:101D9C00C7F98121204601F0C3F905F20C42204617
:101DAC00BDE870401F23012101F010BA002301216E
:101DBC00D0F81822137251721F2302F20C4201F058
:101DCC0005BA0022D0F818321A72704770B50C4B55
:101DDC00D0F818420546C4F82C34002384F8381483
:101DEC00237204F22C420D23812101F0E1F904F25B
:101DFC000C422846BDE870401F23012101F0E6B9D2
:101E0C005553425310B5D0F8183204461A7A022AA8
:101E1C0003D012D3042A0ED910BD03F21B4293F83F
:101E2C00191400F09FF8002807DA01212046BDE8BC
:101E3C001040FFF7CBBF0021F9E710BD70B5D0F80B
:101E4C0018420546267A16B1012E56D070BDD4F82C
:101E5C0010340121C4F83034D4F81434C4F83434B8
:101E6C0001F0C2F91F2894F819140BD1D4F80C24E2
:101E7C00264B9A4206D1012904D894F81A34013B16
:101E8C000F2B0BD920230522284600F099FA0223A8
:101E9C0063722846BDE87040FFF748BF04F21B424E
:101EAC00284600F05FF80028237A07DA052BF0D1DA
:101EBC0001212846BDE87040FFF788BF013B022B8B
:101ECC0023D961890029F4D0D5F818222846D2F8F4
:101EDC00143482F83864994228BF1946D2F8343445
:101EEC005B1AC2F83434042313728BB204F10C0263
:101EFC008121BDE8704001F05BB904F21B4294F8FB
:101F0C00191400F02FF80028D2DB70BD5553424352
:101F1C0010B5D0F81842637A022B05D1812101F05B
:101F2C000DF90023637210BD0A0606D5012B04D0EF
:101F3C00BDE810400121FFF749BF10BD10B5D0F826
:101F4C001802120290F85D3400EBC3040133DBB2CB
:101F5C00042B08BF002384F83C14C4F8402480F8F8
:101F6C005D3410BD2DE9F743137805461E2B0C4646
:101F7C0017460FD013D8122B00F0AD8005D8002BCC
:101F8C005DD0032B77D020223CE11A2B00F0C080CF
:101F9C001B2BF8D10024D5F818325C8167E0282B74
:101FAC0000F0038126D8232B00F0D080252BEAD11A
:101FBC00D0F81862D0F81C3206F25E4220465B68FC
:101FCC0006F58C6198470446002840F0D480D6F87A
:101FDC0060343074013B1A0E32731A0C7273F37343
:101FEC001A0AB6F85E34B2731A0AF3747074B274C7
:101FFC000823D8E02F2B00F095815A2B00F0978006
:10200C002A2BC0D1D0F81862337A002B40F04C81C7
:10201C0096F91834002BB6DBD0F81C3208469B68B6
:10202C009847002840F0A780D5F81C322046DB6882
:10203C0098470446002800F0028127229CE0D0F843
:10204C001862D6F81434002B9DD1D0F81C320846F7
:10205C009B689847044648B13A2202212846FFF76C
:10206C006DFF052333724FF0FF3400E07081204682
:10207C0003B0BDE8F083D0F81832002003F10C0255
:10208C0003F11E0102F8010B8A42FBD170221A7374
:10209C000C2293F85D14DA7493F85C24914212D0FC
:1020AC0003EBC20191F83C4401329C7391F841441A
:1020BC00D2B21C7691F84014042A597614BF83F8D6
:1020CC005C2483F85C0412225A813A79122A98BF54
:1020DC005A810024CBE77B78D0F81822DB0714D484
:1020EC00D0F81C32D969242303FB041423793979E1
:1020FC0005338B4228BF0B465381002BE9D0013BA3
:10210C009BB2E05CD1180873F7E70723A94CF3E7FF
:10211C000822D0F81832A8495A8103F113020B3364
:10212C0011F8010D02F801099342F9D1D1E7082207
:10213C00D0F81832A1495A8103F113020B3311F86C
:10214C00010D02F801099A42F9D1C2E70021D0F839
:10215C00186206F10C0306F1180203F8011B9A42EF
:10216C00FBD1D5F81C3220465B680DF1020201A9A7
:10217C009847044618B13A2202212846DAE008238F
:10218C00F373019B7075013B1A0E32741A0C727446
:10219C00F3741A0A02233375BDF80230B274F37566
:1021AC001A0A0C23B275738161E7D0F81862337A7E
:1021BC00002B40F0DC8096F91834002BBFF6E3AE10
:1021CC00D0F81C3208469B6898470028D3D1FB787E
:1021DC00BA781B0443EA02637A7913433A7943EAE7
:1021EC000223C6F86434FA79397A41EA0221D5F827
:1021FC0018225818D2F86024C6F86814904240F29D
:10220C00A78021220521B8E7BBB24246812128468E
:10221C0000F0CEFFD6F86434D6F868443B44C6F8D8
:10222C006434D6F83434E41BDF1BC6F86844C6F8B3
:10223C003474002C7FF44DAF0323337217E7FA7814
:10224C00BB78120442EA03627B791A433B7942EA77
:10225C000322C6F864243B7AF97943EA0121D5F8C4
:10226C0018325018D3F86034C6F868149842C8D89D
:10227C00B6F85E345A434B43C6F86424D6F814249B
:10228C00C6F8683493427FF47EAEB3F5806F4FF09E
:10229C00010128BF4FF4806331729BB206F10C022E
:1022AC00284600F093FFE2E6D6F86874B6F85E2490
:1022BC00B7F5806F28BF4FF48067B7FBF2F3D6F801
:1022CC006414D0F81C0206F10C08D0F81490B1FB81
:1022DC00F2F29BB241462046C847002801DA03229D
:1022EC0065E0D6F86434D6F834243B44C6F864343C
:1022FC00D6F86834DB1BD71BC6F86834C6F83474C0
:10230C0023B900212846FFF761FDE2E6B3F5806FA3
:10231C0028BF4FF4806342469BB20121284600F04F
:10232C0055FFD6E65478D0F8183214F0020404D0D5
:10233C0024220521FFF702FE95E6D3F86414B3F8C6
:10234C0068240A44D3F860148A427FF626AE58E714
:10235C0002223272B6F85E2453434A43C6F8643400
:10236C00D6F81434C6F868249A427FF40CAE4FF4B5
:10237C0080637381D5F81862D5F81C02D6F868749E
:10238C00B6F85E249F4228BF1F46B7FBF2F3D6F87F
:10239C00641406F10C08D0F81090B1FBF2F29BB269
:1023AC0041462046C8470028BFF62EAF1122042113
:1023BC00E3E600BF643F0008643F00085C3F000890
:1023CC0010B5D0F818021B0290F85D1400EBC10494
:1023DC000131C9B20429C4F8403408BF002384F881
:1023EC003C2414BF80F85D1480F85D3410BD08B532
:1023FC0080B1D0F8143213B10023C0F8143209B1F3
:10240C00C0F810120123027080F8FC3100F024FE99
:10241C00002008BD022008BD19B1C0F8141200201C
:10242C0070470220704708B500F04EFE002008BD32
:10243C0008B5D0F814320BB9022008BD1B689847B8
:10244C000028F9D108BD08B5D0F814325B6898475C
:10245C00002008BD38B500F502750446284600F08A
:10246C0064FA012394F80812C4F8F431B4F80E326B
:10247C00C4F8F83101F01F03012B0ED007D3022B47
:10248C0010D001F08001204600F058FE03E02946F0
:10249C00204600F0D5F8002038BD2946204600F033
:1024AC00C9F9F8E72946204600F0DCF9F3E738B51E
:1024BC000446154611BBD0F8F431032B0FD1D0F8DC
:1024CC000C31D0F8102193420BD99B1A9A4228BF99
:1024DC001A46C0F80C3192B2294600F076FA002068
:1024EC0038BDD0F814321B6923B190F8FC21032AB3
:1024FC0000D19847204600F070FAF0E7D0F814327B
:10250C009B69002BEBD090F8FC21032AE7D198476C
:10251C00E5E770B5134604460E4600293DD1D0F8C8
:10252C00F421022A0FD1C569026A954214D9AA1A5C
:10253C00C261194692B200F040FA33461A46194667
:10254C00204600F043FE94F80032012B02D1002308
:10255C0084F80032002070BD8369B3FBF2F502FBF6
:10256C00153565B99A420AD8D0F8F821934206D2AB
:10257C002A4600F022FAC4F8F8512B46DEE7D4F8CC
:10258C001432DB682BB194F8FC21032A01D12046CC
:10259C009847204600F02CFAD5E7D0F814325B6946
:1025AC00002BD7D090F8FC21032AD3D19847D1E740
:1025BC00002238B5044640251146402300F092FD18
:1025CC002B46C4F8105100228021204600F08AFDD1
:1025DC00012384F8FC31D4F8183225622BB1D4F8DD
:1025EC00143221795B6820469847002038BD01746D
:1025FC000020704790F8FC3180F8FD31042380F8FE
:10260C00FC310020704790F8FD3180F8FC3100203F
:10261C00704708B590F8FC21032A04D1D0F8143285
:10262C00DB6903B19847002008BD10B50446802132
:10263C0000F084FD2046BDE81040002100F07EBD76
:10264C0037B54B7804460D46092B79D8DFE813F0E3
:10265C00C900E5007800D90078006D000A00780008
:10266C00B9008D004B881A0A013A062A68D8DFE8AF
:10267C0002F0041C296767495200D0F810321B681D
:10268C000DF10601207C9847BDF80620002A67D082
:10269C00EB88002B64D09A4228BF1A460146ADF84D
:1026AC000620204600F07CF95AE0027CD0F8143267
:1026BC0032B99B6A0DF10600984702234370E3E799
:1026CC00DB6AF7E7DBB2052B3AD8DFE803F0030748
:1026DC000B0F1317D0F810325B68D1E7D0F810321B
:1026EC009B68CDE7D0F81032DB68C9E7D0F8103220
:1026FC001B69C5E7D0F810325B69C1E7D0F810321E
:10270C009B69BDE7037CDBB9D0F814320DF10600F0
:10271C005B6B9847B8E7037C93B9D0F814320DF192
:10272C0006001B6B98470723C8E78B8843B9CB88F7
:10273C0033B990F8FC318D78032B05F07F0503D16C
:10274C002046FFF772FF0BE080F8FE51294600F09F
:10275C0021FD204600F041F92DB1022384F8FC3113
:10276C00002003B030BD0123F8E78978304D0129F2
:10277C002970E5D890F8FC31022B0CD0032BDFD15B
:10278C00B1B90223416080F8FC31FFF75CFE2046B2
:10279C0000F023F9E4E70029F9D00121032341607B
:1027AC0080F8FC312046FFF743FE0228EFD1C7E743
:1027BC0041680129EBD0C9B2FFF745FE2978616069
:1027CC00F0E7CA88012ABBD190F8FC31022B03D068
:1027DC00032BB5D1011D64E70146002341F8083FE6
:1027EC005FE790F8FC31023B012BA9D80123C360B1
:1027FC00D0F804320BB10323C360022204F10C01A4
:10280C004FE74B88012BABD1C4F80432D4F8143207
:10281C0029469B6820469847B9E790F8FC31023B63
:10282C00012B8DD84B88012B9AD10023ECE700BFEC
:10283C003C01002038B590F8FC310446032B0D46C2
:10284C000DD10B79012B0AD8D0F814329B6898471C
:10285C00EB8813B9204600F0C0F8002038BDFFF714
:10286C00E4FEFAE770B50A788E8802F06002202A3E
:10287C0004460D46F3B205D1D0F814329B68984744
:10288C00002070BD4A78012A1CD02AD3032AF7D124
:10289C0090F8FC21022A40D0032A02D0FFF7C5FE93
:1028AC00EEE74A8822B95E0602D0194600F046FCD3
:1028BC00D4F8143229469B6820469847204600F0ED
:1028CC008CF8DDE790F8FC21022A26D0032AE5D10A
:1028DC004A88002AD4D15906F0D0194600F03CFCA5
:1028EC00E6E790F8FC21022A17D0032AD6D103F090
:1028FC007F0516F0800F00EB0515194614BF143533
:10290C0005F5827500F036FC68B101232B600222BC
:10291C002946204600F044F8B2E75A06B0D01946D2
:10292C0000F00CFCACE72860F1E70B7803704B78F7
:10293C004370CA788B7803EB022343804A790B7976
:10294C0003EB02238380CA798B7903EB0223C380C8
:10295C00704710B50446802100F0F0FB2046BDE81E
:10296C001040002100F0EABB30B588B105462B1AA7
:10297C0015F8014BDBB2002CF9D15B00023313804C
:10298C000B7003234B700223013810F8015F05B95B
:10299C0030BD5A1CCD54D2B20233DBB28C54F4E7A6
:1029AC001346022210B5C0F8F42183610A46C361B4
:1029BC00002100F0FDFB002010BD08B513460A46AF
:1029CC00002100F0F5FB002008BD08B513460A46AF
:1029DC00002100F0FBFB002008BD08B50423C0F863
:1029EC00F43100231A46194600F0E2FB002008BD22
:1029FC0008B50523C0F8F43100231A46194600F037
:102A0C00E5FB002008BD00002DE9F041ADF5896D16
:102A1C000646274907A801F06EF9044600283CD168
:102A2C0001A907A801F0A2F90546224FDFF88C8016
:102A3C0025B99DF80D300BB1FF2C19D107A801F069
:102A4C008CF92EB1012231461B4801F007F80546DE
:102A5C002DBB4FF48072184812AB4FF0FF3112921D
:102A6C00036201F08CF800200DF5896DBDE8F08152
:102A7C0039460DF10D00FDF763FB40B10D200DF152
:102A8C000D0100FB048001F042FA0134E4B201A90B
:102A9C0007A801F06BF90546CAE7002ED2D1012236
:102AAC000649054800F0DAFF0028DDD1D1E700BF68
:102ABC006C3F0008793F0008E00500200406002068
:102ACC00072992BF02464368021D4FF00F008DBFCD
:102ADC000839890013688900884023EA0003022022
:102AEC0000FA01F11943116070470123072988BFCF
:102AFC00A1F1080210B59CBF8A00044603FA01F14B
:102B0C0001614FF00F0184BF041D920023689140B6
:102B1C0023EA0103082101FA02F21343236010BDDA
:102B2C0037B50F25214B9A6942F001029A619B69D6
:102B3C0001F0030203F001030193019B21F0030355
:102B4C0003F1804303F580339C689200954024EA9E
:102B5C000504174DA84223D005F58065A84221D065
:102B6C0005F58065A8421FD005F58065A8420CBF0D
:102B7C00032004209040012202FA01F1CA432043B1
:102B8C0098600C4B186810401860586808435860DF
:102B9C00986802409A60DA681143D96003B030BD7E
:102BAC000020E7E70120E5E70220E3E70010024000
:102BBC00000801400004014000210B4610B50C4AEE
:102BCC00CCB2A04201D8184610BD9468240602D598
:102BDC009468A405F9D594685B00E40548BF0133FB
:102BEC009468240602D49468A405F9D50131E7E76A
:102BFC00000C01400E4A70B5082311464FF080744A
:102C0C004FF480759668360602D59668B605F9D5E8
:102C1C0006064CBF0D610C6140009668360602D466
:102C2C009668B605F9D5013B13F0FF03EAD170BDE8
:102C3C00000C014008B5044C6420FDF7DFFAE36892
:102C4C0083F40053E360F7E700100140D0282DE92E
:102C5C00FF41044614D00DD8A02835D0A82825D083
:102C6C00002876D13C480821FFF72AFF2046FFF7C1
:102C7C00C1FF16E0F02835D0F12850D0D82868D103
:102C8C0008213548FFF71CFF4FF00052334C324EF1
:102C9C00334F2261B56815F4007517D04FF400530B
:102CAC00236108212C48FFF720FF06E01820FFF7CE
:102CBC0083FF01462A4800F062FF274A93689B0570
:102CCC00FCD504B0BDE8F0811020F0E76946384629
:102CDC0000F005FF08B18DF800509DF80000FFF7DB
:102CEC0089FFD7E708211C48FFF7EAFE00264FF0C2
:102CFC000D081C4FF3B208FB03F3FC18FB5C63B12B
:102D0C00002501E0FFF776FFEBB2E05C013500280F
:102D1C00F8D1FFF76FFF0136ECE7FF20A7E70D2294
:102D2C000021684601F0EBF80820FFF745FF6C46E0
:102D3C008DF8000003AD23780BB1AC4203D168468B
:102D4C00FFF762FEB9E70820FFF736FF04F8010F22
:102D5C00F1E7FFF76FFF00BF000C014000100140CE
:102D6C00E005002004060020282270B594B0002154
:102D7C000DEB020001F0C3F81422102500210DEB1D
:102D8C00020001F0BCF82A46002101A801F0B7F8B6
:102D9C004FF4803301240B93022612934FF48013CB
:102DAC000AA80A940E9411961393FDF7DBFF08B151
:102DBC00FFF740FF0F2305934FF4A06307902146C4
:102DCC0005A8069608930993FEF794F90028EFD10D
:102DDC004FF4800301A801950493FEF73DFA0028F7
:102DEC00E6D114B070BD000000B5ADF2344DFDF766
:102DFC00E1F9FFF7B9FF244B244C9A69082142F002
:102E0C0008029A619A69224802F008020092009A1C
:102E1C009A6942F010029A619B6903F010030193C6
:102E2C00019B4FF400532361FFF75FFE0921184803
:102E3C00FFF75BFE0D212046FFF742FE07211448E9
:102E4C00FFF753FE07211248FFF76AFE00F07EF8E9
:102E5C000122104902A800F0DDFD10B90E48FFF761
:102E6C00D3FD0B4C02210020FDF76CFFA3689A05E3
:102E7C00F8D4A3681B06F5D40820FFF79DFEC0B25A
:102E8C00FFF7E4FEEEE700BF001002400010014027
:102E9C00000C01406B3F00086D3F00080E4B82B0E8
:102EAC009A6942F001029A619A6902F00102009259
:102EBC00009ADA6942F08052DA61DB69074A03F062
:102ECC0080530193019B536823F0E06343F000733C
:102EDC00536002B0704700BF001002400000014078
:102EEC007047FEE7FEE7FEE7FEE770477047704766
:102EFC00FDF772B90148FDF72FBC00BF2815002063
:102F0C000F4B1A6842F001021A6059680D4A0A40C8
:102F1C005A601A6822F0847222F480321A601A689D
:102F2C0022F480221A605A6822F4FE025A604FF48E
:102F3C001F029A604FF00062034B9A60704700BF0B
:102F4C00001002400000FFF800ED00E008B5002280
:102F5C000E490F48FFF74BFA08B1FFF76BFE0D490E
:102F6C000B48FFF759FA08B1FFF764FE0A49084805
:102F7C00FEF7D7FE08B1FFF75DFE0548FFF753FAE1
:102F8C0018B1BDE80840FFF755BE08BDB0000020E1
:102F9C0004130020080000200001002007B50D4B91
:102FAC0002689A4212D103F5DA33DA69142042F43A
:102FBC000002DA610022DB69114603F4000301937D
:102FCC00019BFDF73FF91420FDF770F903B05DF894
:102FDC0004FB00BF005C004000F22C41D0F85C0404
:102FEC00FFF738BA00EB4113D3F83C22D0F85C045D
:102FFC00FFF75DBA00EB4113DA6BD0F85C04FFF716
:10300C0088BAD0F85C04FFF704BB836810B5022BB8
:10301C00044601D0FFF70EFED4F85C040121FFF743
:10302C00E6FAD4F85C04BDE81040FFF7C1BA000022
:10303C0010B50446D0F85C04FFF7DCFAA36923B1A1
:10304C00024A136943F00603136110BD00ED00E062
:10305C00D0F85C04FFF7D7BA0223082210B5184940
:10306C000446184880E80E000023C0F85C44C4F8FD
:10307C0020028361C3610362FDF760FA08B1FFF7B8
:10308C00D9FD002218231146D4F82002FDF742FE88
:10309C00582300228021D4F82002FDF73BFE982310
:1030AC0000228121D4F82002FDF734FED82300221F
:1030BC000121D4F82002FDF72DFE002010BD00BF29
:1030CC00005C00402815002008B5D0F82002FDF760
:1030DC009EFA03289ABF024B185C022008BD00BF61
:1030EC00953F000810B51C46D0F820021346224626
:1030FC00FDF7B8FA03289ABF014B185C022010BDEB
:10310C00953F000808B5D0F82002FDF7CEFA032849
:10311C009ABF024B185C022008BD00BF953F000807
:10312C0008B5D0F82002FDF7DBFD03289ABF024B4F
:10313C00185C022008BD00BF953F000808B5D0F808
:10314C002002FDF781FD03289ABF024B185C022078
:10315C0008BD00BF953F000808B5D0F82002FDF768
:10316C009CFD03289ABF024B185C022008BD00BFCF
:10317C00953F00080A06D0F8203245BF01F07F01C8
:10318C0003EB411303EB411393F82A0058BF93F858
:10319C002A02704708B5D0F82002FDF74FFA032831
:1031AC009ABF024B185C022008BD00BF953F000877
:1031BC0008B5D0F82002FDF7B8FA03289ABF024BE5
:1031CC00185C022008BD00BF953F000808B5D0F878
:1031DC002002FDF78BFA03289ABF024B185C0220E1
:1031EC0008BD00BF953F000808B5D0F82002FDF7D8
:1031FC0095FA08BD004870474001002070477047A1
:10320C00122301480B807047CC0000200423014896
:10321C000B807047E0000020002330B51D46DCB267
:10322C00A24200D830BD040F092C94BF303437347F
:10323C0001F8134001EB4304000165700133EEE724
:10324C001A2310B50B80094B186808331B68C0187B
:10325C000AD0074B08221C680649FFF7DDFF042241
:10326C0005492046FFF7D8FF044810BDE8F7FF1FBB
:10327C00ECF7FF1FE6000020F6000020E400002021
:10328C0010B5044C0A4604482146FFF76DFB204656
:10329C0010BD00BF88190020B23F000810B5044CC7
:1032AC000A4604482146FFF75FFB204610BD00BFCD
:1032BC0088190020B73F000810B5044C0A46044892
:1032CC002146FFF751FB204610BD00BF8819002096
:1032DC00993F000810B5044C0A4604482146FFF7F4
:1032EC0043FB204610BD00BF88190020A43F0008F6
:1032FC00002814BF0220002070476F230B604FF48E
:10330C0080630020138070470020704700207047B6
:10331C00F0B50F4687B015461E460446F8B9FDF7C2
:10332C000FF805F50032113206A9950241F8144D3B
:10333C0002A8059602940495FDF7B2F8B602B442C1
:10334C0004D3FDF70FF8002007B0F0BD3A59291946
:10335C00002302200434FDF739F8A4B2EFE7022071
:10336C00F2E738B50D46044648B902F50031113183
:10337C009A028902284600F0B7FD204638BD02208B
:10338C0038BD00207047002070470020704708B5FA
:10339C00084602F5003111319A02890200F0A4FDB1
:1033AC00002008BD42884378007843EA022340EAB3
:1033BC000320704730B5044614F8013B11F8015B4B
:1033CC005B1B151BE84201D0002BF5D0184630BD15
:1033DC00C3680239023B99423DBF4389006A01FB35
:1033EC000300002070470268890A5289036AB1FB06
:1033FC00F2F10433186830B1814202D3091A083350
:10340C00F8E758680844704702684AB1134613F845
:10341C00011B20290BD93A29F9D1911C8B4202D0DE
:10342C004FF0FF3070471278302AF9D1036000203A
:10343C00704738B50D46044618B9092000232B6097
:10344C0038BD0368002BF8D01A78002AF5D0818893
:10345C00DA889142F1D15878FFF795FF10F001000E
:10346C00EBD12368EBE7CA7E8B7E032843EA022369
:10347C0001BF487D0A7D42EA002243EA0243184616
:10348C00704738B5436A05468B420C460ED00A4647
:10349C00012300F128014078FFF779FF002816BFBF
:1034AC004FF0FF34002001206C6238BD002038BD85
:1034BC00002310B5C3704FF0FF3343620446FFF78F
:1034CC00E0FF18BB94F8272294F8263243EA022333
:1034DC004AF6552293421BD194F82830EB2B03D09B
:1034EC001833DBB2012B15D803220B4904F15E0013
:1034FC00FFF760FF78B10522084904F17A00FFF765
:10350C0059FF002814BF0220002010BD042010BD5C
:10351C00032010BD022010BD60400008644000086C
:10352C002DE9FF4100230B600E46FFF76DFF051ED2
:10353C00C0F2BD80754B53F82540002C00F0B980CB
:10354C0034602378002B40F098800023E8B223707D
:10355C006070FFF71AFF10F0010540F0AC802946AF
:10356C002046FFF7A5FF022840F09A8004F5F7717A
:10357C0011F8040C10B10846FFF714FF4DF82500A4
:10358C000135042D01F11001F2D100265DF8265011
:10359C00002D7CD029462046FFF78AFF012877D8DA
:1035AC0094F8342094F8333043EA0223B3F5806F57
:1035BC007BD194F83F3094F83E6056EA032604D150
:1035CC0004F14C00FFF7EEFE064694F83810266125
:1035DC004B1E012BA17068D894F835801FFA88F324
:1035EC006381002B61D008F1FF3313EA080F5CD123
:1035FC0094F83A3094F8397047EA0327FB06278190
:10360C0053D194F83C3094F83B0050EA032003D19A
:10361C0004F14800FFF7C6FE94F8372094F83630D2
:10362C0053EA022341D006FB01FE03EB571272440E
:10363C0082423AD8801AB0FBF8F0354900F1FF3CD1
:10364C008C4532D84FF6F57188422B4400F10201BB
:10365C002A4432D840F6F57C6045E1606561A3618F
:10366C0022624CD80FB37344E36101EB410301F0C8
:10367C00010101EB5301012333E06078FFF783FE76
:10368C0010F001007FF461AF04B0BDE8F0810320BD
:10369C000136042E7FF47AAF042806D10120F3E71B
:1036AC000428FBD001287FF67BAF0D20ECE70B2024
:1036BC00EAE70C20E8E70320E6E7A361226294F82E
:1036CC00523094F85320E16053EA02236561ECD147
:1036DC00002FEAD104F15400FFF764FE0323E061EC
:1036EC00890001F2FF31B6EB912FDED3094A23702A
:1036FC001388002001339BB21380E380C4E7002FB2
:10370C00D3D07344E36149000223EAE7B0050020FB
:10371C00F4FFFF0FB40500200129F8B504460E464E
:10372C0053D9C368994250D20378022B29D0032B6A
:10373C0039D0012B49D101EB5105816901EB952160
:10374C00FFF79FFE10B14FF0FF30F8BDA1696F1C61
:10375C00C5F30905254401EB9721204695F828501F
:10376C00FFF78FFE0028EED1C7F309073C4494F80D
:10377C002800F30745EA00204CBF0009C0F30B00FA
:10378C00F8BD816901EB5621FFF77BFE0028DAD1E9
:10379C0040F2FE33283403EA4603E2185278E05C28
:1037AC0040EA0220F8BD816901EB1621FFF769FEA2
:1037BC000028C8D1B30003F47F7304F12800184427
:1037CC00FFF7F0FD20F07040F8BD0120F8BDF8B512
:1037DC00066904462036B6F5001F24BF002383611A
:1037EC008369056863B1C6F3090707BB41690133F7
:1037FC00836139B92B89B3EB561F18D80023A36109
:10380C000420F8BD6B89013B13EA96230FD128469F
:10381C00FFF782FF012801460FD9431C0FD0EB683C
:10382C009842EBD260612846FFF7D2FDA0612835A3
:10383C003D442661E5610020F8BD0220F8BD012061
:10384C00F8BD38B50023826805460468036192B957
:10385C002378022B01D9E36973B923890BB90220B0
:10386C0038BDE369AB61AB696A61002BF7D02834D2
:10387C00EC61002038BD134661891A4661B91146C6
:10388C002868FFF749FF431C02460BD00128E6D9F4
:10389C00E3689842F3D3E2E719462046FFF798FD18
:1038AC00A861E0E7012038BD2DE9F0470446D0F8C7
:1038BC0000800B780E462F2B01F10101F9D05C2B07
:1038CC00F7D00023A36033781F2B4FD9DFF83C913E
:1038DC0004F120073B46202104F12B0203F8011BC5
:1038EC009342FBD1002208201146751E15F8013FAA
:1038FC000131202B09D92F2B40D17018811B10F8C6
:10390C00015B2F2DFAD05C2DF8D00E44002A4BD041
:10391C0094F820202046E52A04BF052284F82020B4
:10392C00212B34BF0423002384F82B30D4F800A0BF
:10393C00FFF787FF0546002839D1A1695046FFF7EC
:10394C00A0FD054698BBE06903787BB3C37A03F00E
:10395C003F03A371C37A190704D40B223946FFF72E
:10396C0029FD20B32046FFF732FFE3E7802384F8DC
:10397C002B302046BDE8F047FFF763BF5C2BBCD073
:10398C002E2B33D090420FD913F0800F1CBF03F0B5
:10399C007F0319F80330DFF878C01CF801EFBEF193
:1039AC00000F28D07345F8D1062509E0042594F8BA
:1039BC002B3045B1042D03D113F0040F08BF05259E
:1039CC002846BDE8F0875A07FAD4A379DB060BD555
:1039DC00236908F12801C3F3090398F8000019447E
:1039EC00FFF741FDA06073E70525E9E70B28DBD065
:1039FC0008220B207AE7A3F1610EBEF1190F01D852
:103A0C00203BDBB2BB54013270E700BFE03F000843
:103A1C00694000081FB5019004A840F8041D0091EE
:103A2C001446FFF7F1FC002812DB0B4B53F8202057
:103A3C000AB100211170019A0AB10021117043F8EA
:103A4C0020203CB101A96846FFF76AFD04B010BD07
:103A5C000B20FBE72046F9E7B00500202DE9F041EB
:103A6C008EB001911646054670B302A901A8FFF766
:103A7C0057FD044670BB029B0EA840F82C3D0199E3
:103A8C00FFF712FF044628BB9DF93730002B20DBD3
:103A9C009DF81230DB0620D4029FDDF828803878A0
:103AAC004146FFF7E0FCA86008F11C00FFF77AFC28
:103ABC00FB8806F00106E8602C622F60AB802E7448
:103ACC006C74EC616C6100E0092420460EB0BDE81A
:103ADC00F081062400232B60F7E70424FAE7F8B5FD
:103AEC00C268436904469A420D4643D0C3F30902A7
:103AFC00002A30D10768980A7A89561E06401DD1D3
:103B0C002BB9A068012814D802206074F8BD236A70
:103B1C0053B1B0FBF2F004331A68002AF4D090428F
:103B2C002AD3801A0833F7E7A1693846FFF7F4FD6A
:103B3C00E8E7431C01D10120E7E7A061A269FB681B
:103B4C009A4215D27B89396A023A02FB0313334439
:103B5C009E42E361D8D0E369626903F50033113307
:103B6C00C2F309029B029B5C2B7063690133636196
:103B7C000020F8BD0120F8BD5B681844C2E72DE9B0
:103B8C00F74F0D4601A90446FFF753FC0646E0B972
:103B9C00667CD6B9236A002B5CD0691C38D1D4F86A
:103BAC0008801F1DD3F800B00225B8F1000F28D0F3
:103BBC00C1464FF0000A49462068FFF7ADFD0128C9
:103BCC000AF1010A07D802266674304603B0BDE834
:103BDC00F08F8046ECE7421C01D10126F4E709F195
:103BEC00010398428146E6D00235AB4521BF3B46E6
:103BFC0043F808ABC7F804801F46019BDB6898426A
:103C0C00E7D3236A5D451D6073D800233B60DCE776
:103C1C00E068854228BF05466561002DD5D06F1E32
:103C2C0039462046FFF7DFFB019A0146A06110469A
:103C3C00FFF7CEFB0028C6D0C5F30905002DC4D074
:103C4C005189E369013901EA972108449842BCD0B3
:103C5C00E061BAE7E0686369854228BF05466661A2
:103C6C00002DB2D0019A5789BF0243B3013B6A1EA3
:103C7C00B2FBF7F2B3FBF7F18A4220D37A42A16987
:103C8C001340636181B1ED1ABD4263691CD82B44AA
:103C9C006361C5F309033BB10198FFF799FB002859
:103CAC0091D000EB952500E000256369C3F309036F
:103CBC00002B8AD0E3699D4287D0E56185E7A16836
:103CCC00A161002981D0DFE73B4463612068FFF7E5
:103CDC0023FD431CA5EB070501463FF47EAF0128ED
:103CEC007FF671AF019BDB689842BFF46CAFA061AB
:103CFC00CAE7112669E71FB50446019140B303A931
:103D0C0001A8FFF70DFC70B9039B019923602046B5
:103D1C00FFF7CAFDF0B994F92B30002B0CDBA3791B
:103D2C00DB0603D40520002323600FE0039BE1692D
:103D3C001878FFF798FBA060039B2046DB88A380D4
:103D4C00FFF77FFD0428EDD00028ECD104B010BDA6
:103D5C000920FBE70428E5D0E5E713B501A90446E3
:103D6C00FFF767FB00B9206002B010BDF7B50D4638
:103D7C0001A90446FFF75DFB064620B935B920467C
:103D8C00FFF75FFD0646304603B0F0BD0420276800
:103D9C00A16900293BD1002853D100236B72A26981
:103DAC0072B318464FF02E0EE1694F1E17F8012F13
:103DBC000130202A0ED0052A08BFE522092802BFAF
:103DCC0005EB030C01338CF809E005EB030C8CF8C4
:103DDC00092001330B28E9D100222B445A72CB7AEB
:103DEC0001F11C002B72FFF7DDFA2860CA7D8B7D78
:103DFC0043EA0223EB804A7E0B7E43EA0223AB802C
:103E0C002046FFF7E4FC042818BF0646BBE73846FB
:103E1C00FFF737FBA8B9E3691A78C2B1DB7AE52A58
:103E2C0003F03F03A37107D02E2A05D00F2B03D02C
:103E3C0023F02003082BB0D12046FFF7C8FC002844
:103E4C00A6D0002310F0FB0FA3619BD1A5E70420A3
:103E5C00F7E70000002103E00B4B5B5843500431A3
:103E6C000A480B4B42189A42F6D30A4A02E0002346
:103E7C0042F8043B084B9A42F9D3FFF741F800F0A3
:103E8C000FF8FEF7B1FF70478440000800000020D7
:103E9C002001002020010020881B0020FEE70000EC
:103EAC0070B500250C4E0D4CA41BA410A54209D1D5
:103EBC0000F036F800250A4E0A4CA41BA410A542AB
:103ECC0005D170BD56F8253098470135EEE756F808
:103EDC00253098470135F2E77C4000087C4000080B
:103EEC007C4000088040000810B5431E0A449142F3
:103EFC0000D110BD11F8014B03F8014FF7E7034651
:103F0C000244934200D1704703F8011BF9E70346C2
:103F1C0011F8012B03F8012B002AF9D1704700008E
:103F2C00F8B500BFF8BC08BC9E467047F8B500BF9A
:083F3C00F8BC08BC9E4670476A
:103F440002030405060708090A0B0C0D0E0F1010D6
:103F54000006000000000000000000000000000057
:103F64000000000300808330006175746F72756E09
:103F74002E62696E004155544F52554E2E42494EA1
:103F8400000000000000000000010203040607080E
:103F940009000201024D534320436F6E66696700B6
:103FA4004D534320496E7465726661636500415ADE
:103FB40059410053544D5000008002021F0000007C
:103FC400415A59412020202053544D502020202074
:103FD4002020202020202020302E3520435545410C
:103FE4004141414345454549494941414592924FE3
:103FF4004F4F5555594F554F9C4F9E9F41494F55D3
:10400400A5A5A6A7A8A9AAABACADAEAFB0B1B2B3F3
:10401400B4414141B8B9BABBBCBDBEBFC0C1C2C343
:10402400C4C54141C8C9CACBCCCDCECFD1D14545F9
:104034004549494949D9DADBDCDD49DF4FE14F4FD6
:104044004F4FE6E8E85555555959EEEFF0F1F2F3C4
:10405400F4F5F6F7F8F9FAFBFCFDFEFF46415400CF
:10406400464154333200222A2B2C3A3B3C3D3E3FFE
:084074005B5D7C7F0000000091
:04407C003101000806
:044080000D01000826
:104084000100000010000000CD1B0008191C0008EE
:10409400451C000800000000000000001B1D000873
:1040A400251D0008000000000000000000000000C2
:1040B4009D1B0008A91B0008B51B0008C11B0008B4
:1040C40009022000010104C03209040000020806AC
:1040D4005005070581024000000705010240000069
:1040E40009022000010104C032090400000208068C
:1040F40050050705810200020007050102000200C5
:104104000A06000200000040010000000907200028
:10411400010104C032090400000208065005070525
:1041240081024000000705010240000000A24A0489
:104134000D320008193200088D320008A932000837
:104144004D320008C5320008E132000812010002B5
:104154000000004083042A5700020102030100000A
:10416400040309041A03000000000000000000001A
:10417400000000000000000000000000000000003B
:10418400FD320008073300088F3300081533000898
:104194006F3300081D33000819330008BC3F0008C2
:0400000508003E6150
:00000001FF
