:020000040800F2
:1000000000500020993D0008ED2E0008EF2E00085A
:10001000F12E0008F32E0008F52E00080000000065
:10002000000000000000000000000000F72E0008A3
:10003000F92E000800000000FB2E0008FD2E00082D
:10004000E13D0008692B0008E13D0008E13D0008A2
:10005000E13D0008E13D0008E13D0008E13D000808
:10006000E13D0008E13D0008E13D0008E13D0008F8
:10007000E13D0008E13D0008E13D0008E13D0008E8
:10008000E13D0008E13D0008E13D0008E13D0008D8
:10009000012F0008E13D0008E13D0008E13D0008B6
:1000A000E13D0008E13D0008E13D0008E13D0008B8
:1000B000E13D0008E13D0008E13D0008E13D0008A8
:1000C000E13D0008E13D0008E13D0008E13D000898
:1000D000E13D0008E13D0008E13D0008E13D000888
:1000E000E13D0008E13D0008E13D0008000000009E
:1000F0000000000000000000000000000000000000
:0C01000000000000000000005FF808F1A3
:10010C0010B5054C237833B9044B13B10448AFF345
:10011C0000800123237010BD20010020000000008E
:10012C00683E000808B5034B1BB103490348AFF305
:10013C00008008BD0000000024010020683E00087B
:10014C0010F8012B11F8013B012A28BF9A42F7D075
:10015C00D01A704738B50E4B054618784FF47A73A1
:10016C00B3FBF0F30B4A1068B0FBF3F000F0AAF805
:10017C00044658B90F2D09D8024629464FF0FF30D6
:10018C0000F062F82046044B1D6038BD0120FCE7EE
:10019C0000000020AC00002004000020074A08B535
:1001AC001368032043F01003136000F03BF80020A9
:1001BC00FFF7D0FF02F072FE002008BD00200240C5
:1001CC00034A044B11681B780B441360704700BF43
:1001DC003C01002000000020014B1868704700BF54
:1001EC003C01002038B50446FFF7F6FF0546631CBA
:1001FC001EBF044B1B78E418FFF7EEFF431BA34212
:10020C00FAD338BD000000204FF0E022136923F030
:10021C000203136170474FF0E022136943F00203AD
:10022C001361704707490302CA6803F4E06322F4C0
:10023C00E0621204120C134343F0BF6343F4003327
:10024C00CB60704700ED00E0164B30B5DC68C4F3B2
:10025C000224C4F10703251D042B28BF0423062DFB
:10026C004FF0FF3598BF002405FA03F388BF033C19
:10027C0021EA0303A34005FA04F422EA040200284D
:10028C0043EA0203ACBF00F16040074A4FEA031394
:10029C00DBB2B5BF00F00F0000F56140135480F8DD
:1002AC00003330BD00ED00E014ED00E00123420905
:1002BC0000F01F0003FA00F0014B43F822007047D6
:1002CC0000E100E00138B0F1807F0BD24FF0E02369
:1002DC00F021054A586182F823100020072298610A
:1002EC001A6170470120704700ED00E0114AD36895
:1002FC0013F0100305D01049CB6943F00203CB6116
:10030C001023D268500706D50B4943F00403CA6981
:10031C0042F00102CA61074AD169C90708D50648EB
:10032C00C16941F00401C161D16921F00101D161C0
:10033C00D36070470020024040010020064B186932
:10034C0010F0800007D0054A5A6002F188325A60DA
:10035C001869C0F3C01070470020024023016745A4
:10036C00034A0020136943F080031361704700BFF8
:10037C000020024070B50546FFF72EFF0646114CD3
:10038C00E368D80712D4E368990644BF2023E360DE
:10039C00E368DA0606D4E369DB0703D4E06810F0FF
:1003AC00040007D0FFF7A2FF012003E06B1CE7D08D
:1003BC000DB9032070BDFFF70FFF801BA842DFD9DA
:1003CC00F7E700BF002002402DE9F84FDFF89090CE
:1003DC001E4699F818300446012B0F4690463DD026
:1003EC0001234CF2503089F81830FFF7C3FF80BB63
:1003FC00012C03D0022C0CBF022404240025AB4694
:10040C00DFF860A02801C0F12002A0F1200306FA59
:10041C0002F228FA00F0C9F81CB0104326FA03F3D4
:10042C001843DAF8103080B243F00103CAF81030E8
:10043C0027F815004CF25030FFF79CFFDAF810301B
:10044C0023F00103CAF8103018B90135EBB29C4205
:10045C00D8D8002389F81830BDE8F88F0220FBE7C4
:10046C0040010020002002400022064BDA61064BBE
:10047C001A6942F002021A6158611A6942F040028C
:10048C001A61704740010020002002402DE9F04124
:10049C00264F05463B7E8846012B44D001243C76F2
:1004AC0003684CF25030022B1AD1FFF763FF20B1D6
:1004BC00012000233B76BDE8F0811D4CF8612369D7
:1004CC004CF2503043F004032361236943F04003A2
:1004DC002361FFF74FFF236923F004032361E8E74F
:1004EC00FFF748FF0028E3D14FF0FF33C8F8003086
:1004FC002046AE680E4CD5E9023203EB8223B342A0
:10050C00D7D93046FFF7B0FF4CF25030FFF732FF2F
:10051C00236923F00203236110B1C8F80060C8E717
:10052C0006F58066E7E70220C5E700BF4001002022
:10053C00002002402DE9F041044686B000285ED030
:10054C0090F8293403F0FF021BB980F8282402F03C
:10055C002DFD032325466E4684F8293455F8100BDF
:10056C0000F062FF0FCD0FC62B6804F10408336056
:10057C0098E80E00206800F047FF0021206800F08A
:10058C005DFF0021234622460126084604F1100592
:10059C0082F82810918601310F29C2E90E0082F8E9
:1005AC00296082F82B00106402F12002F0D10022A5
:1005BC00174683F828229A8601320F2AC3E98E77D0
:1005CC0083F8297283F82B72C3F8407203F120036D
:1005DC00EFD16E460FCD0FC62B68336098E80E0036
:1005EC00206800F02DFF012384F82470206884F823
:1005FC00293401F0D6F9002006B0BDE8F0810120C5
:10060C00FAE710B590F828340446012B0ED00121DE
:10061C0080F8281402F0D1FD206801F0C0F92068A0
:10062C0000F0F9FE002084F8280410BD0220FCE73D
:10063C0010B590F828240446012A0BD0012280F82A
:10064C00241080F82824006801F0A3F9002084F815
:10065C00280410BD0220FCE738B5044648B2002837
:10066C0001F07F05B5BF04EB451104EB41112831B6
:10067C0001F50A71C00F0D7048700A61CB7094F8C7
:10068C002834012B09D00123206884F8283400F089
:10069C00F7FE002084F8280438BD0220FCE74BB29A
:1006AC0010B5002B01F07F02B5BF00EB421100EB3F
:1006BC004111283101F50A71DB0F0A704B7090F86B
:1006CC0028340446012B09D0012380F82834006813
:1006DC0001F02CF8002084F8280410BD0220FCE75F
:1006EC0038B5002501F07F0100EB411484F8281285
:1006FC00C4E98F23C4F8445284F8295204F50A71D2
:10070C00006801F065F9284638BD01F00F0100EBD7
:10071C004110B0F84402704701F07F0138B500EB8E
:10072C0041140025C4E90F2384F828100123214625
:10073C00656484F829302831006801F049F92846AD
:10074C0038BD00002DE9F3470446006801F02BF991
:10075C00000400F19880206801F025F941050FD5BF
:10076C0022682046B2F8443023F480631B041B0C2F
:10077C00A2F8443002F053FC00212046FFF758FF4A
:10078C00206801F010F9470408D52268B2F844300B
:10079C0023F480431B041B0CA2F84430206801F0A6
:1007AC0002F9860408D52268B2F8443023F40053C9
:1007BC001B041B0CA2F84430206801F0F4F8C504AB
:1007CC001CD522682046B2F8403023F004031B04E9
:1007DC001B0CA2F84030B2F8403023F008031B0485
:1007EC001B0CA2F8403002F03DFC2268B2F84430F9
:1007FC0023F480531B041B0CA2F84430206801F036
:10080C00D2F800051DD52068B0F840309BB243F0FB
:10081C000803A0F84030B0F8443023F400631B0404
:10082C001B0CA0F84430B0F840309BB243F00403EA
:10083C00A0F8403001F0B7F8C10402D4204602F011
:10084C0001FC206801F0AFF882050BD52268204628
:10085C00B2F8443023F400731B041B0CA2F8443090
:10086C0002F0D9FB206801F09EF8C30508D5226878
:10087C00B2F8443023F480731B041B0CA2F84430F0
:10088C0002B0BDE8F0870023C64FDFF81C83DFF809
:10089C001C93ADF80430ADF806302068B0F8443045
:1008AC009BB2ADF804301B047FF555AFBDF8045076
:1008BC0015F00F0540F0AB80BDF80410038811F063
:1008CC0010019BB226D13B400380B0F8503094F815
:1008DC0028209BB203EBC20300EB4300D0F8043496
:1008EC00E26BC3F3090363641344E363204602F031
:1008FC008BFB94F82430002BCFD0226C002ACCD167
:10090C0094F82430216843F08003A1F84C3084F82B
:10091C002420C2E7ADF80630BDF806301A051FD505
:10092C00B0F8503094F828229BB203EBC20300EBD2
:10093C004303D3F80C34B4F82C22C3F30903C4F8E2
:10094C00443204F22C4101F021F92268204613882C
:10095C0023F070031B051B0D138002F047FB9CE773
:10096C00BDF806301B0498D5038823F070031B05D3
:10097C001B0D0380B0F8503094F828229BB203EB87
:10098C00C20300EB4303D3F80C34C3F30903C4F8DC
:10099C00443263B1B4F82C22D4F83C1201F0F6F8CE
:1009AC00D4F83C32D4F844221344C4F83C3200212D
:1009BC00204602F021FB2268D4F83852B2F85010CD
:1009CC003E2D89B201F1060102F5806017D9C5F3FD
:1009DC004F13EE0604BF03F1FF339BB249EA8323A6
:1009EC009BB240F8113013889BB203EA080383F4DE
:1009FC00405343F4004343F0800313804DE7C5F3A9
:100A0C004F03ED0744BF01339BB29B02E8E730F87C
:100A1C0025309BB2ADF80630BDF8063019043FD531
:100A2C0030F8253004EB451123F070031B051B0D2A
:100A3C0020F8253091F8323200F580624FEA451AE1
:100A4C00002B72D1B0F8503091F828629BB206336B
:100A5C0003EBC60352F81360C6F3090636B1B1F8BE
:100A6C002C223346D1F83C1201F090F804EB0A0129
:100A7C00D1F84432D1F83C223344C1F84432D1F895
:100A8C0040323244C1F83C2223B1D1F838028642BC
:100A9C0080F08180A24420469AF8281202F0ACFA29
:100AAC00BDF806301A067FF5F8AE206804EB451148
:100ABC0030F825306E019BB23B4020F8253091F880
:100ACC00323000F580620235002B71D1B0F8503015
:100ADC0091F828C09BB2023303EBCC0352F81330CD
:100AEC0004EB4515C3F309036B601BB18A8DC96B0D
:100AFC0000F05FFF22682644B2F8503096F82810B8
:100B0C009BB2023303EBC10302EB4303D3F8002483
:100B1C00F36BC2F3090272641A44336C2046F2631D
:100B2C00002B7CD102F070FAB7E691F8283230F83D
:100B3C0023C0DE00B0F850301CF4804F9BB233441D
:100B4C001ED0023352F81360C6F3090636B1334691
:100B5C00B1F82E22D1F83C1201F018F804EB0A037C
:100B6C0093F82812226832F8213023F0F0031B0589
:100B7C001B0D43F4004343F0C00322F8213075E70A
:100B8C00063352F81360C6F30906002EE6D033463E
:100B9C00B1F83022DEE7204691F82812FFF7A0FDCD
:100BAC007EE700BF0F8FFFFF8FBFFFFF0080FFFFAF
:100BBC0091F8283030F823E04FEAC30CB0F85030ED
:100BCC001EF0400F9BB263441DD0023352F8133019
:100BDC0004EB4515C3F309036B601BB1CA8DC96BDC
:100BEC0000F0E7FEA31993F82810226832F82130A0
:100BFC0023F0F0031B051B0D43F4404343F080032B
:100C0C0022F8213076E7063352F8133004EB451501
:100C1C00C3F309036B60002BE4D00A8EDFE7FFF708
:100C2C007BFD3AE6012238B54BB2002B01F07F0573
:100C3C00B5BF00EB451100EB4111283101F50A71EC
:100C4C00DB0F8A700D704B7090F828340446934279
:100C5C000ED080F82824006800F029FE25B9206801
:100C6C0004F22C4100F0A3FE002084F8280438BDC7
:100C7C000220FCE738B500254BB2002B01F07F02B7
:100C8C00B5BF00EB421100EB4111283101F50A719F
:100C9C00DB0F8D700A704B7090F828340446012BD2
:100CAC0009D0012380F82834006800F032FE284671
:100CBC0084F8285438BD0220FCE710B590F828348D
:100CCC000446012B10D0012380F828340B06006851
:100CDC0007D501F07F0100F0CEFB002084F828043A
:100CEC0010BD00F0CAFBF8E70220F9E711F0800F05
:100CFC001BBF01F07F0100EB411000EB41102830CD
:100D0C0008BF00F50A7099B21AB98272818000206E
:100D1C00704701221B0C8272C1800381F7E720BF50
:100D2C0000BF7047184A0168136823F0E0030B43B7
:100D3C001360164B5A6822F480325A601A6822F4F7
:100D4C0080321A60DA6822F48032DA609A6822F40F
:100D5C0080329A604268D10342BF196841F48031F5
:100D6C001960900342BF596841F480315960D10732
:100D7C0042BF996841F480319960920742BFDA68AA
:100D8C0042F48032DA607047007000400004014089
:100D9C000122014B1A61704700000E42064A0129DC
:100DAC00136923F00403136101D130BF704740BFB6
:100DBC0020BF20BF704700BF00ED00E00F4A10B508
:100DCC001468012924F002041460136823F0010351
:100DDC0043EA000313600A4B1A6942F004021A61D9
:100DEC0005D130BF1A6922F004021A6110BD40BF50
:100DFC00FFF795FFFFF793FFF4E700BF007000408B
:100E0C0000ED00E07047000010B5054C6369DB0392
:100E1C0004D5FFF7F7FF4FF48033636110BD00BFBB
:100E2C000004014003682DE9F341DB07054610D4AB
:100E3C002B689F075ED42B68190700F195802B68EF
:100E4C005A0700F1C180EA69002A40F02D81002088
:100E5C0014E0914C636803F00C03042B07D0636817
:100E6C0003F00C03082B0CD16368DE0309D523684F
:100E7C009C03DDD56B68002BDAD1012002B0BDE8F4
:100E8C00F0816B68B3F5803F10D1236843F4803355
:100E9C002360FFF7A1F9064623689803C8D4FFF72F
:100EAC009BF9801B6428F7D90320E7E79BB92368DB
:100EBC0023F480332360236823F480232360FFF71B
:100ECC008BF9064623689903B2D5FFF785F9801B89
:100EDC006428F7D9E8E7B3F5A02F236803D143F4CE
:100EEC0080232360D1E723F480332360236823F429
:100EFC008023CDE7684C636813F00C0F07D0636850
:100F0C0003F00C03082B10D16368DA030DD42368AB
:100F1C009B0702D52B69012BAFD123686A6923F09B
:100F2C00F80343EAC203236085E72A695B4B6AB185
:100F3C0001221A60FFF750F9064623689F07ECD48C
:100F4C00FFF74AF9801B0228F7D9ADE71A60FFF7C3
:100F5C0043F90646236898077FF56DAFFFF73CF918
:100F6C00801B0228F6D99FE7AA694B4E4B4BE2B186
:100F7C000122C3F88024FFF72FF90446736A9B07FC
:100F8C000DD54FF4FA52464B1B68B3FBF2F30193A9
:100F9C0000BF019B5A1E0192002BF9D14FE7FFF7BE
:100FAC001BF9001B0228E9D97EE7C3F88024FFF760
:100FBC0013F90446736A9F077FF541AFFFF70CF9ED
:100FCC00001B0228F6D96FE7334CE369D80024D410
:100FDC000127E36943F08053E361E36903F0805335
:100FEC000093009B2F4E3368D90518D5EB68012B65
:100FFC0026D1236A43F001032362FFF7EDF841F297
:10100C0088380646236A9B073FD5002F3FF41BAF59
:10101C00E36923F08053E36115E70027E2E73368C7
:10102C0043F480733360FFF7D7F880463368DA05F2
:10103C00DCD4FFF7D1F8A0EB08006428F6D933E72D
:10104C00ABB9236A41F2883823F001032362236A87
:10105C0023F004032362FFF7BFF80646236A9807C0
:10106C00D3D5FFF7B9F8801B4045F7D91CE7052B02
:10107C00236A03D143F004032362BAE723F001038C
:10108C002362236A23F00403B6E7FFF7A5F8801B5D
:10109C004045B7D908E700BF0010024000004242AB
:1010AC00AC00002000700040234C636803F00C037C
:1010BC00082B3FF4E2AE022A4FF000021F4B1A66D7
:1010CC002CD1FFF789F806462368990120D42B6AA6
:1010DC00B3F5803F05D16268A96822F400320A4357
:1010EC006260696A62680B4322F474121343012232
:1010FC006360124B1A66FFF76FF8054623689A0176
:10110C003FF5A5AEFFF768F8401B0228F6D9CBE6F1
:10111C00FFF762F8801B0228D6D9C5E6FFF75CF80A
:10112C00054623689B017FF592AEFFF755F8401BEF
:10113C000228F6D9B8E600BF001002400000424277
:10114C0030B5184B87B002AC03F110052246186875
:10115C005968083303C2AB421446F7D140F201235D
:10116C001149ADF804304B6803F00C02082A17D172
:10117C00C3F3834218326A44DB0312F8100C0CD50B
:10118C004B680A4AC3F34043504318336B4413F87B
:10119C00143CB0FBF3F007B030BD054B5843FAE7F5
:1011AC000248F8E7803E00080010024000127A0066
:1011BC0000093D00534A2DE9F0411368044603F041
:1011CC0007038B420D4628D321688E0732D4CA07F9
:1011DC0045D44C4A136803F00703AB427FD822680E
:1011EC00494D12F0040F40F08580130706D56B684B
:1011FC00226923F4605343EAC2036B60FFF7A0FF3C
:10120C006B68424AC3F30313D35CD840404B18605D
:10121C000020FEF79FFF00200AE0136823F007036D
:10122C000B431360136803F007038B42CCD00120EF
:10123C00BDE8F081344B11F0040F1EBF5A6842F424
:10124C00E0625A60080742BF5A6842F460525A6022
:10125C005A68A06822F0F00202435A60B7E762684D
:10126C00294E012A33681BD113F4003FDFD0736879
:10127C0041F2883823F0030313437360FEF7ACFF8D
:10128C0063680746012B13D1736803F00C03042B1E
:10129C009FD0FEF7A1FFC01B4045F5D90320C7E73F
:1012AC00022A02D113F0007FE0E713F0020FDDE712
:1012BC00022B0FD1736803F00C03082B89D0FEF7B7
:1012CC008BFFC01B4045F5D9E8E7FEF785FFC01B37
:1012DC004045E3D8736813F00C0FF6D179E7136827
:1012EC0023F007032B431360136803F00703AB428F
:1012FC009DD174E76B68E16823F4E0630B436B608A
:10130C0073E700BF0020024000100240C23E0008FC
:10131C00AC00002003682DE9F341D907054620D520
:10132C00364CE369DA0032D40126E36943F080538A
:10133C00E361E36903F080530193019B304F3B68F9
:10134C00DB0526D5236A13F4407336D1236A6A6809
:10135C0023F44073134323621EB1E36923F08053DB
:10136C00E3612868830706D52449AB684A6822F4F0
:10137C0040421A434A6010F010001BD01F4AE96823
:10138C005368002023F480030B43536012E00026C3
:10139C00D4E73B6843F480733B60FEF71DFF804647
:1013AC003B68D805CED4FEF717FFA0EB08006428E5
:1013BC00F6D9032002B0BDE8F0816A6802F44072ED
:1013CC009A42C3D001200F4A236AC2F8400400207D
:1013DC0023F44071C2F840042162D907B6D5FEF758
:1013EC00FBFE41F288380746236A9A07AED4FEF713
:1013FC00F3FEC01B4045F7D9DBE700BF00100240ED
:10140C00007000400000424284B001A880E80E0049
:10141C0004B000207047B0F840309BB243F43F4317
:10142C00A0F8403000207047B0F8403023F47453DB
:10143C005B045B0CA0F84030002070470020704724
:10144C0084B010B5044603A880E80E0000200123E8
:10145C00A4F84030A4F84000A4F84400A4F85000CC
:10146C00B4F840309BB243F43F43A4F84030BDE89D
:10147C00104004B0704700207047002070470000F7
:10148C00F0B5CB780A78032B0FD8DFE803F00261B4
:10149C004D5630F8223023F4EC4323F070031B0438
:1014AC001B0C43F4007320F8223040F60F720B78BB
:1014BC0000F5806630F8234014401C4344F400448B
:1014CC0044F0800420F823408D7ADC00002D40F09D
:1014DC0089808D884F786D086D00002F43D0B0F84F
:1014EC00501089B20C4430F8231046F814504906B9
:1014FC0008D530F823100A4042F4004242F0C002F2
:10150C0020F8232030F8232022F4E04222F040027D
:10151C001204120C82F0200242F4004242F08002CB
:10152C0020F823200020F0BD30F8223023F4EC43C7
:10153C0023F070031B041B0CB5E730F8223023F4A6
:10154C00EC4323F070031B041B0C43F4C063AAE7A9
:10155C0030F8223023F4EC4323F070031B041B0CF3
:10156C0043F480639FE7B0F8502092B222440432D7
:10157C0046F81250B0F85020096992B206323E2952
:10158C00144427D9C1F34F15CA0604BF05F1FF3225
:10159C0095B2654A42EA852292B246F8142030F898
:1015AC00232056040BD530F8232022F0F00212052C
:1015BC00120D42F4404242F0800220F8232030F811
:1015CC00232022F4804222F070021204120C82F4C6
:1015DC004052A1E7C1F34F02CF0744BF013292B290
:1015EC009202D9E730F8235025F4F8752D052D0D0E
:1015FC0045F4014545F0800520F82350B0F85050D3
:10160C00CF88ADB27F0825447F0046F81570B0F83E
:10161C005050ADB22C440D8904346D086D0046F861
:10162C0014504978002941D130F823104D0408D5C5
:10163C0030F823100A4042F4404242F0800220F875
:10164C00232030F8232054060BD530F8232022F029
:10165C00F0021205120D42F4004242F0C00220F8D2
:10166C00232048F2800130F8232022F0F0021205EA
:10167C00120D42F4004242F0C00220F8232030F850
:10168C00232022F4804222F070021204120C82F405
:10169C0040520A4320F8232030F8232022F4E04261
:1016AC0022F040021204120C0A4339E730F82310DE
:1016BC00490408D530F823100A4042F4404242F065
:1016CC00800220F8232030F8232052060BD530F866
:1016DC00232022F0F0021205120D42F4004242F0D7
:1016EC00C00220F8232048F2800130F8232022F099
:1016FC00F0021205120D42F4404242F0800220F832
:10170C00232030F8232022F4E04222F0400212047D
:10171C00120C0A4320F8232030F8232022F48042B4
:10172C0022F07002BEE700BF0080FFFF4A780B7802
:10173C00897AB9BBFAB130F8232051060BD530F8B1
:10174C00232022F0F0021205120D42F4004242F066
:10175C00C00220F8232030F8232022F4E04222F0AB
:10176C0040021204120C42F4004242F0800220F8B3
:10177C0023200020704730F8232052040BD530F87A
:10178C00232022F0F0021205120D42F4404242F0E6
:10179C00800220F8232030F8232022F4804222F00B
:1017AC007002DEE7002A42D130F8232051040BD519
:1017BC0030F8232022F0F0021205120D42F44042C0
:1017CC0042F0800220F8232030F8232052060BD55B
:1017DC0030F8232022F0F0021205120D42F40042E0
:1017EC0042F0C00220F8232048F2800130F8232078
:1017FC0022F0F0021205120D42F4004242F0C00237
:10180C0020F8232030F8232022F4804222F07002AA
:10181C001204120C0A4320F8232030F8232022F45F
:10182C00E04222F040021204120C0A439FE730F807
:10183C00232051040BD530F8232022F0F00212059E
:10184C00120D42F4404242F0800220F8232030F87E
:10185C00232052060BD530F8232022F0F00212057B
:10186C00120D42F4004242F0C00220F8232048F24C
:10187C00800130F8232022F0F0021205120D42F400
:10188C00404242F0800220F8232030F8232022F43A
:10189C00E04222F040021204120C0A4320F82320EA
:1018AC0030F8232022F4804222F07002BBE70A7841
:1018BC008AB9038823F4804323F040031B041B0CD8
:1018CC0083F4805383F0100343F4004343F080030C
:1018DC000380002070474B7883B130F8223023F41A
:1018EC00E04323F040031B041B0C83F0100343F470
:1018FC00004343F0800320F82230EAE730F822302E
:10190C0023F4804323F070031B041B0C83F48053DB
:10191C00EDE74B780A780BB330F8223059060BD52B
:10192C0030F8223023F0F0031B051B0D43F4004369
:10193C0043F0C00320F8223030F8223023F4E04387
:10194C0023F040031B041B0C83F0300343F40043CF
:10195C0043F0800320F822300020704730F822300A
:10196C005B040BD530F8223023F0F0031B051B0D64
:10197C0043F4404343F0800320F8223030F8223007
:10198C0023F4804323F070031B041B0C83F440539B
:10199C00DCE711B98023A0F84C3000207047002000
:1019AC00704700207047B0F8440080B270470020A8
:1019BC007047013300F580605B1000EB420203B905
:1019CC00704731F8020B013B22F8040BF7E70000DB
:1019DC00F8B54A780546012A0E468C690B69887A57
:1019EC005BD19C428ABFE21A00221C468A61A3B2D8
:1019FC00496905F58067F8B9B2882846FFF7D9FF21
:101A0C00B5F8503032789BB2023303EBC20347F87F
:101A1C001340327835F8223023F4E04323F04003AE
:101A2C001B041B0C83F0300343F4004343F080038E
:101A3C00002025F82230F8BD327835F822C0D000CD
:101A4C00B5F850201CF0400F92B2024402F1020291
:101A5C0047F81240284614BF3289F288FFF7A9FFD5
:101A6C007378327863B935F8223023F0F0031B0514
:101A7C001B0D43F4004343F0C00325F82230C8E7A4
:101A8C00012BC6D135F8223023F0F0031B051B0DBA
:101A9C0043F4404343F08003EFE79C4294BF0021A2
:101AAC00E11AB16188BF1C46337858BBB5F85000B9
:101ABC003E2C80B200F1060000EBC30005F58061FE
:101ACC0018D9C4F34F12E40604BF02F1FF339AB2E3
:101ADC002D4B43EA82239BB241F81030327835F813
:101AEC00223023F4804323F070031B041B0C83F47B
:101AFC00405399E7C4F34F03E20744BF01339BB251
:101B0C009B02E8E7002AE9D1B5F850003E2C80B2E0
:101B1C0000F102004FEAC30705F5806100EBC3003A
:101B2C001BD9C4F34F12E30604BF02F1FF339AB280
:101B3C00154B43EA8223B5F850209BB292B2063281
:101B4C003E2C41F810303A440FD8C4F34F03E00751
:101B5C0044BF01339BB29B0211E0C4F34F03E20775
:101B6C0044BF01339BB29B02E5E7C4F34F10E4067C
:101B7C0004BF00F1FF3398B2034B43EA80239BB2BE
:101B8C0041F81230AAE700BF0080FFFF013300F5D7
:101B9C0080605B1000EB420203B9704752F8040BF3
:101BAC00013B21F8020BF7E7202303800048704724
:101BBC006000002020230380004870474000002074
:101BCC0020230380004870478C0000200A230380E8
:101BDC00004870478000002010B5037C0446C3B950
:101BEC004FF400730222012101F081FA4FF40073CB
:101BFC0002228121204601F07AFA40F26C4001F079
:101C0C00D7FAC4F8180258B1204600F0BCF80020EE
:101C1C0010BD40230222012101F069FA4023E7E7BD
:101C2C000120F5E710B50446012101F06CFA812181
:101C3C00204601F068FA204600F0CDF8D4F81802DE
:101C4C0020B101F0B9FA0023C4F81832002010BDFD
:101C5C002DE9F0410B78074613F060050C46D0F8DF
:101C6C0018822DD0202D5DD14A78FE2A05D0FF2A6E
:101C7C0019D000F054FE02251FE04D8885B9CE889E
:101C8C00012E0DD11A060BD5D0F81C329B69984742
:101C9C003246C8F800004146384600F067FE0CE0BA
:101CAC0021463846E5E74A88002AF9D1CD88002D2F
:101CBC00F6D11B06F4D400F083F82846BDE8F08179
:101CCC004E780A2E1CD00B2E1ED0012EF5D1097980
:101CDC0001F022FA3846217901F015FA94F9043012
:101CEC00002B3B7C16DA9BB94FF400730222812146
:101CFC00384601F0FCF93846217900F013F9DCE79D
:101D0C00012208F10401C8E78B78C8F80430D4E745
:101D1C004023EBE723B94FF4007302223146E7E787
:101D2C004023FAE70025C8E708B500F075F8002055
:101D3C0008BD08B500F08CF8002008BD09B1C0F84A
:101D4C001C120020704770B5D0F81852044695F854
:101D5C0018343BB9D5F8143423B16B7A13B901217B
:101D6C0001F0E3F98121204601F0DFF96B7A022BB7
:101D7C0008D1204605F20C421F23BDE8704001211A
:101D8C0001F007BA70BD70B50446D0F818520020A7
:101D9C002881A5F85C04D4F81C321B6898470121F3
:101DAC00204601F0B9F98121204601F0B5F9204611
:101DBC0005F20C421F23BDE87040012101F0E9B986
:101DCC004FF48073D0F81822012113811F2302F2E3
:101DDC000C4201F0DEB90022D0F818321A727047AA
:101DEC0070B50C4BD0F818420546C4F82C340023BF
:101DFC0084F83814237204F22C420D23812101F053
:101E0C00BFF9284604F20C421F23BDE870400121A3
:101E1C0001F0BFB95553425310B5D0F8181204460F
:101E2C000B7A022B07D0033B012B0FD80021BDE806
:101E3C001040FFF7D5BF01F21B4291F8191400F0C6
:101E4C0099F8002802DA01212046F0E710BD0000C5
:101E5C0070B5D0F818420546267A16B1012E56D028
:101E6C0070BDD4F810340121C4F83034D4F81434D3
:101E7C00C4F8343401F096F91F2894F819140BD1D6
:101E8C00D4F80C24264B9A4206D1012904D894F894
:101E9C001A34013B0F2B0BD920230522284600F0C6
:101EAC0077FA022363722846BDE87040FFF74BBFF8
:101EBC00284604F21B4200F05DF80028237A07DA6A
:101ECC00052BF0D101212846BDE87040FFF788BFF3
:101EDC00013B022BC4D961890029F4D0D5F8183202
:101EEC002846D3F8142483F83864914228BF11464D
:101EFC00D3F83424521AC3F8342404221A728BB245
:101F0C0004F10C028121BDE8704001F039B994F85C
:101F1C00191404F21B4200F02DF80028A0DAD1E7C6
:101F2C005553424310B5D0F81842637A022B05D1B1
:101F3C00812101F0FAF80023637210BD0A06FCD56A
:101F4C00012BFAD0BDE810400121FFF749BF90F8F2
:101F5C005D3410B500EBC3040133DBB2042B08BFB6
:101F6C000023120284F83C14C4F8402480F85D3439
:101F7C0010BD00002DE9F743137806462F2B0D46B4
:101F8C001746D0F818423DD8192B08D8032B5AD035
:101F9C00122B00F08280002B3AD02022E8E11A3B71
:101FAC00152BFAD801A252F823F000BFE320000849
:101FBC00DD200008A71F0008A71F0008DD2000086F
:101FCC00A71F0008A71F0008A71F0008A71F0008CD
:101FDC00F3200008A71F000841210008A71F0008D4
:101FEC00A71F00087B210008A71F00085322000828
:101FFC00A71F0008A71F0008A71F0008A71F00089D
:10200C00732300085A2BC8D10823C34A638165E0A7
:10201C00D4F81434002BC0D1D0F81C3208469B687D
:10202C009847054650B13A220221D6F81802FFF71C
:10203C008EFF052323724FF0FF3500E060812846A8
:10204C0003B0BDE8F0831222002104F10C0001F072
:10205C00F5FE702323730C2394F85D24E37494F839
:10206C005C349A4211D004EBC3020133DBB2042B73
:10207C0008BF002392F83C14A17392F84114217606
:10208C0092F8402484F85C346276122363813B79A5
:10209C00122B98BF63810025D1E75378DB0714D44A
:1020AC00D0F81C321279D969242303FB05152B793E
:1020BC000533934228BF13466381002BEBD0013BC1
:1020CC009BB2E95CE2181173F7E70723934DF3E732
:1020DC0000206081DFE70823914A63811368E36085
:1020EC0053682361D7E70023E36023616361D0F871
:1020FC001C320DF1020228465B6801A9984705467F
:10210C0020B13A220221D6F81802C9E00823E37361
:10211C00019B013B1A0E22741A0C6274E3741A0AA6
:10212C00BDF80230A2745BBA0222E3820C23A282B5
:10213C00638184E7D0F81C3204F25E4228465B6867
:10214C0004F58C61984705460028DAD1D4F8603440
:10215C002082013B1A0E22731A0C6273E3731A0A63
:10216C00B4F85E34A2735BBA63820823E0E7237A87
:10217C006BBB94F91834002BBFF60FAFD0F81C32A0
:10218C0008469B6898470028BBD1D7F80220D6F8A0
:10219C00180212BAC4F86424B7F80730D0F86014E7
:1021AC005BBA9BB29F188F42C4F8683476D8022170
:1021BC002172B4F85E144A434B43C4F86424D4F837
:1021CC001424C4F86834934201D0202267E04FF401
:1021DC0080636381D6F81842D6F81C02D4F8687470
:1021EC00B4F85E249F4228BF1F46B7FBF2F3D4F825
:1021FC00641404F10C08B1FBF2F2D0F810904146D3
:10220C0028469BB2C847002802DA112204217AE73B
:10221C00BBB242468121304600F0B2FFD4F86434A0
:10222C00D4F868043B44C4F86434D4F83434C51B83
:10223C00DB1BC4F86854C4F83434002D7FF42BAF86
:10224C0003232372FBE6237A002B47D194F918342D
:10225C00002BFFF6A2AED0F81C3208469B689847BC
:10226C0000287FF44EAFD6F81C322846DB6898471E
:10227C00054608B1272245E7D7F80220D6F8180200
:10228C0012BAC4F86424B7F80730D0F860145BBAFB
:10229C009BB2D7188F42C4F8683404D92122052187
:1022AC00FFF755FEC7E6B4F85E144A434B43C4F837
:1022BC006424D4F81424C4F86834934285D1B3F55B
:1022CC00806F4FF0010128BF4FF4806330462172BC
:1022DC009BB204F10C0200F05CFFB0E6D4F8687419
:1022EC00B4F85E24B7F5806F28BF4FF48067B7FB56
:1022FC00F2F3D4F86414D0F81C0204F10C08B1FB0E
:10230C00F2F2D0F81490414628469BB2C8470028F8
:10231C0008DA03227AE700BF913E0008A13E0008CC
:10232C00993E0008D4F86434D4F868543B44C4F89B
:10233C006434D4F83434ED1BDB1BC4F86854C4F893
:10234C00343425B929463046FFF74AFD77E6B5F512
:10235C00806F28BF4FF48065424601213046ABB2F6
:10236C0000F017FF97E6787810F0020003D02422D3
:10237C000521204694E7D4F86424B4F86834134457
:10238C00D4F8602493427FF6A4AE2122F0E700BF7C
:10239C0010B5D0F818021B0290F85D1400EBC104C4
:1023AC000131C9B20429C4F8403408BF002384F8B1
:1023BC003C2414BF80F85D1480F85D3410BD08B562
:1023CC0080B1D0F8143213B10023C0F8143209B123
:1023DC00C0F810120123027080F8FC3100F046FEA8
:1023EC00002008BD0220FCE719B1C0F8141200202F
:1023FC0070470220704708B500F070FE002008BD41
:10240C0008B5D0F814320BB9022008BD1B689847E8
:10241C000028FAD0F8E708B5D0F814325B68984772
:10242C00002008BD38B500F502750446284600F0BA
:10243C0062FA012394F80812C4F8F431B4F80E329D
:10244C00C4F8F83101F01F03012B08D0022B0BD07C
:10245C007BB92946204600F0D9F8002038BD294622
:10246C00204600F0CDF9F8E72946204600F0E0F9C7
:10247C00F3E7204601F0800100F057FEEDE758B578
:10248C000446164601BBD0F8F431032B0DD1D0E92C
:10249C0043239A420BD9D21A9A42C0F80C2128BF76
:1024AC001A46314692B200F076FA002058BDD0F8A8
:1024BC0014321B6923B190F8FC21032A00D19847F0
:1024CC00204600F070FAF0E7D0F814329B69002B2C
:1024DC00EBD090F8FC21032AE7D19847E5E7F8B553
:1024EC00044613460F4600293DD1D0F8F421022AA8
:1024FC000FD1D0E90756B54214D9AD1B1946C561A9
:10250C00AAB200F040FA3B461A461946204600F0A3
:10251C0040FE94F80032012B02D1002384F80032E3
:10252C000020F8BD8369B3FBF6F506FB153565B9DC
:10253C009E420AD8D0F8F821934206D22A4600F0DF
:10254C0022FA2B46C4F8F851DEE7D4F81432DB68D3
:10255C002BB194F8FC21032A01D120469847204640
:10256C0000F02CFAD5E7D0F814325B69002BD7D0E9
:10257C0090F8FC21032AD3D19847D1E7002238B533
:10258C00044640251146402300F0B1FD2B460022A5
:10259C0080212046C4F8105100F0A9FD012384F8D5
:1025AC00FC31D4F8183225622BB1D4F81432204601
:1025BC005B6821799847002038BD01740020704772
:1025CC0090F8FC3180F8FD31042380F8FC310020B8
:1025DC00704790F8FD3180F8FC310020704708B549
:1025EC0090F8FC21032A04D1D0F81432DB6903B132
:1025FC009847002008BD10B50446802100F095FDD9
:10260C002046BDE81040002100F08FBD37B54B7857
:10261C0004460D46092B76D8DFE813F0C900E50017
:10262C007500D90075006D000A007500B9008D00A9
:10263C004B881A0A013A062A65D8DFE802F0041C16
:10264C00296464495200D0F810321B68207C0DF1CB
:10265C0006019847BDF80620002A67D0EB88002BAE
:10266C0064D09A4228BF1A460146ADF8062020468F
:10267C0000F07CF95AE0027CD0F8143232B99B6A33
:10268C000DF10600984702234370E3E7DB6AF7E796
:10269C00DBB2052B37D8DFE803F003070B0F13175A
:1026AC00D0F810325B68D1E7D0F810329B68CDE7D8
:1026BC00D0F81032DB68C9E7D0F810321B69C5E7D7
:1026CC00D0F810325B69C1E7D0F810329B69BDE7D6
:1026DC00037CC3B9D0F814320DF106005B6B98473C
:1026EC00B8E7037C7BB9D0F814320DF106001B6BF4
:1026FC0098470723C8E78B882BB9CB881BB990F870
:10270C00FC31032B03D12046FFF775FF0EE04D88FB
:10271C0005F07F05294680F8FE5100F028FD204683
:10272C0000F041F92DB1022384F8FC31002003B0F4
:10273C0030BD0123F8E78978304D01292970E2D8A2
:10274C0090F8FC31022B0CD0032BDCD1B1B9022355
:10275C00416080F8FC31FFF75EFE204600F023F963
:10276C00E4E70029F9D001210323416080F8FC3112
:10277C002046FFF745FE0228EFD1C4E74168012946
:10278C00EBD0C9B2FFF747FE29786160F0E7CA8841
:10279C00012AB8D190F8FC31022B03D0032BB2D113
:1027AC00011D64E70146002341F8083F5FE790F8FC
:1027BC00FC31023B012BA6D80123C360D0F80432B4
:1027CC000BB10323C360022204F10C014FE74B88C9
:1027DC00012BABD1C4F80432D4F81432294620466C
:1027EC009B689847B9E790F8FC31023B012B8AD8DB
:1027FC004B88012B9AD10023ECE700BF600100202D
:10280C0038B590F8FC310446032B0D460DD10B79ED
:10281C00012B0AD8D0F814329B689847EB8813B96F
:10282C00204600F0C0F8002038BDFFF7E4FEFAE7C0
:10283C0070B50A78044602F06002202A0D468E8894
:10284C000B7905D1D0F814329B689847002070BDE5
:10285C004A78012A3AD0032A1DD0002AF6D190F8E2
:10286C00FC21022A41D0032A1BD103F07F0500EB87
:10287C000515320619464CBF143505F5827500F066
:10288C0066FC003818BF0120022228602946204629
:10289C0000F06CF8DAE790F8FC21022A25D0032A24
:1028AC0003D02046FFF7A7FED0E74A8822B95A0684
:1028BC0002D0194600F039FCD4F8143229462046CF
:1028CC009B689847204600F06EF8BFE790F8FC2113
:1028DC00022A0AD0032AE4D14A88002AB6D15E061D
:1028EC00F0D0194600F02AFCE6E75906AED019469E
:1028FC0000F01BFCAAE70B7803704B784370CA7886
:10290C008B7803EB022343804A790B7903EB022388
:10291C008380CA798B7903EB0223C380704710B58F
:10292C000446802100F001FC2046BDE81040002147
:10293C0000F0FBBB30B588B10024013823460134CC
:10294C00055D002DFAD1DBB201335B0013800B70F7
:10295C0003234B70022310F8014F04B930BD5A1CED
:10296C00CC54D2B20233DBB28D54F4E713460222BC
:10297C0010B5C0E90633C0F8F4210A46002100F076
:10298C00FFFB002010BD08B513460A46002100F0DD
:10299C00F7FB002008BD08B513460A46002100F0DD
:1029AC00F8FB002008BD08B50423C0F8F43100235F
:1029BC001A46194600F0E4FB002008BD08B50523B3
:1029CC00C0F8F43100231A46194600F0E2FB00204F
:1029DC0008BD0000034A536823F00F0343F00303C0
:1029EC0053607047000C014000230146184610B597
:1029FC00094A9468240602D59468A405F9D594680C
:102A0C004000E40548BF013094682406FCD501332E
:102A1C009942EED110BD00BF000C014030B5082228
:102A2C004FF080714FF48074084B9D682D0602D5D1
:102A3C009D68AD05F9D505064CBF1C6119614000B8
:102A4C009D682D06FCD5013AEFD130BD000C01403C
:102A5C002DE9F041ADF5896D0546214907A801F036
:102A6C00EFF8044650B91F4FDFF87C8001A907A886
:102A7C0001F021F9E8B107A801F014F90122294667
:102A8C001A4800F0A3FF194C28B101222046164920
:102A9C0000F09CFF48B94FF4807212AB4FF0FF313D
:102AAC0012481292236201F013F80DF5896DBDE8FE
:102ABC00F08139460DF10D00FDF742FB0028D5D011
:102ACC009DF80C30DB06D1D40D20661C00FB048075
:102ADC000DF10D0101F0BAF9FF2ECCD03446C5E74B
:102AEC00903E0008A83E0008B00500208C05002090
:102AFC00184B13B59A6900F0030142F001029A6178
:102B0C009B6920F0030203F001030193019B0F2347
:102B1C0002F1804202F58032946889008B4024EAED
:102B2C000304012303FA01F1214391600A4A03FAD9
:102B3C0000F0116821EA00011160536803435360EF
:102B4C00936823EA00039360D3681843D06002B003
:102B5C0010BD00BF0010024000040140FEF754B944
:102B6C0008B5FDF758FB044C6420FDF73BFBE3680C
:102B7C0083F40053E360F7E70010014030B595B0E3
:102B8C00142200210CA801F059F914221024002160
:102B9C000DEB020001F052F90021224601A801F0D0
:102BAC004DF9022501224FF48033CDE90A23CDE9FA
:102BBC0011534FF480130AA80E921393FEF732F9B7
:102BCC00014608B1FFF7CCFF0F23CDE905354FF4D3
:102BDC008063079005A8CDE90833FEF7EBFA0028CF
:102BEC00F0D14FF4800301A801940493FEF792FBFB
:102BFC000028E7D115B030BD80B58AB0FDF7CEFA0C
:102C0C000022994C1146E369012043F08053E361A3
:102C1C00E369964E03F080530593059BFDF714FB77
:102C2C000120FDF743FB4FF00113E020CDE9060333
:102C3C0006A8FEF777F8FEF7ABF8A369002143F07E
:102C4C000403A361A3698A4A03F004030193019B63
:102C5C00A369884D43F00803A361A369092003F01D
:102C6C0008030293029BA369834F43F01003A361F3
:102C7C00A36903F010030393039BA36943F02003A0
:102C8C00A361A369A4F5883403F020030493049B87
:102C9C004FF088331360536011614FF6FF7233604D
:102CAC00736032614FF400526B602A61734A536057
:102CBC004FF4807311613361D4F8043C23F00F039B
:102CCC0043F00803C4F8043C4FF400733361D4F8A8
:102CDC00043C23F0F00343F08003C4F8043CFFF7FA
:102CEC0007FF80233361D4F8003C072023F07043A6
:102CFC0043F00043C4F8003CFFF7FAFE6B68604EEB
:102D0C0023F4700343F440136B60FFF737FF00F0BC
:102D1C001DF9FDF779FA7868022110F0040025D02E
:102D2C000120FEF74BF8FFF729FF012255495648C1
:102D3C0000F028FE10B95548FFF78AFEDFF82C8109
:102D4C00D8F808309905E6D4D8F8084014F0800477
:102D5C00E1D10820FFF748FED02810D009D8A028D0
:102D6C0049D0A82837D020B3FFF7FAFEFEF716F8A3
:102D7C00E4E7F02849D0F1285FD0D828F4D1FFF748
:102D8C0029FE4FF00053DFF8E480414C2B61D8F85A
:102D9C0008309A0531D53E4C61692046013900F066
:102DAC0097FE3146204600F04FFE4FF400532B6146
:102DBC0003E0FFF70FFEFFF731FE4FF48073C8F806
:102DCC001030344AD2F8043C23F00F0343F00803CC
:102DDC00C2F8043C0AE01820FFF706FE01462C4816
:102DEC0000F076FE31462A4800F02EFE1F4A93680A
:102DFC009B05FCD58FE71020EEE73078FFF70EFE31
:102E0C003146204600F020FEC1E7FFF7E3FD224CDF
:102E1C00A04698F80000FFF701FE18F8013B002BC4
:102E2C00F7D114F80D3B002BF2D1FF20FFF7F6FD84
:102E3C004FF480720D4B1A61C3E7CDE90644089438
:102E4C008DF824400DF118080820FFF7CDFDC0B215
:102E5C0008F8010B10B101340D2CF5D106A8FFF7C1
:102E6C00F7FD0028C2D07FE700100240000C0140A3
:102E7C0000080140001001400070004000140140A7
:102E8C00B0120020B43E000864010020B63E0008D9
:102E9C008C05002000000140B00500200E4B82B0D4
:102EAC009A6942F001029A619A6902F00102009259
:102EBC00009ADA6942F08052DA61DB69074A03F062
:102ECC0080530193019B536823F0E06343F000733C
:102EDC00536002B0704700BF001002400000014078
:102EEC007047FEE7FEE7FEE7FEE770477047704766
:102EFC00FDF766B90148FDF725BC00BFD8140020CA
:102F0C000F4B1A6842F001021A6059680D4A0A40C8
:102F1C005A601A6822F0847222F480321A601A689D
:102F2C0022F480221A605A6822F4FE025A604FF48E
:102F3C001F029A604FF00062034B9A60704700BF0B
:102F4C00001002400000FFF800ED00E008B5002280
:102F5C000E490F48FFF733FA08B1FFF701FE0D4990
:102F6C000B48FFF741FA08B1FFF7FAFD0A49084888
:102F7C00FEF7E4FE08B1FFF7F3FD0548FFF73BFA57
:102F8C0018B1BDE80840FFF7EBBD08BDB00000204C
:102F9C00B4120020080000200001002003289ABF72
:102FAC00014B185C02207047D23E000807B50E4B4F
:102FBC0002689A4215D103F5DA33DA69142042F427
:102FCC000002DA610022DB69114603F4000301936D
:102FDC00019BFDF739F9142003B05DF804EBFDF704
:102FEC0065B903B05DF804FB005C004000F22C41B5
:102FFC00D0F85C04FFF716BA00EB4113D3F83C226F
:10300C00D0F85C04FFF73BBA00EB4113DA6BD0F855
:10301C005C04FFF764BAD0F85C04FFF7E0BA83688D
:10302C0010B5022B044601D0FFF79AFDD4F85C04CE
:10303C000121FFF7C2FAD4F85C04BDE81040FFF799
:10304C009DBA000010B50446D0F85C04FFF7B8FA3E
:10305C00A36923B1024A136943F00603136110BD3F
:10306C0000ED00E0D0F85C04FFF7B3BA082310B50C
:10307C00184A04461848C0E9002302238360002341
:10308C00C0F85C44C4F82002C0E906330362FDF7C3
:10309C0051FA08B1FFF764FD002218231146D4F849
:1030AC002002FDF723FE582300228021D4F82002B1
:1030BC00FDF71CFE982300228121D4F82002FDF795
:1030CC0015FED82300220121D4F82002FDF70EFEB4
:1030DC00002010BD005C0040D814002008B5D0F8CA
:1030EC002002FDF78EFABDE80840FFF757BF10B578
:1030FC001446D0F820021A462346FDF7ADFABDE877
:10310C001040FFF74BBF08B5D0F82002FDF7C7FA07
:10311C00BDE80840FFF742BF08B5D0F82002FDF724
:10312C00CCFDBDE80840FFF739BF08B5D0F8200248
:10313C00FDF778FDBDE80840FFF730BF08B5D0F8C3
:10314C002002FDF797FDBDE80840FFF727BF0A06F0
:10315C00D0F8203245BF01F07F0103EB411103EBA6
:10316C00411191F82A0058BF91F82A02704708B50E
:10317C00D0F82002FDF75CFABDE80840FFF70EBF5F
:10318C0008B5D0F82002FDF7C7FABDE80840FFF7F4
:10319C0005BF08B5D0F82002FDF7A2FABDE808403B
:1031AC00FFF7FCBE08B5D0F82002FDF7AEFA08BD5B
:1031BC0000487047381900207047704712230148A7
:1031CC000B807047CC000020042301480B80704713
:1031DC00E0000020002370B51E464D1C040FB0F11A
:1031EC00204F34BF3034373401F8134005F81360E6
:1031FC000133DCB2A2424FEA0010EFD870BD0000E0
:10320C001A2310B50B800A4BD3F8E807D3F8F02734
:10321C0080180AD0D3F8EC4706490822FFF7DAFFEA
:10322C00042220461031FFF7D5FF034810BD00BF24
:10323C0000F0FF1FE6000020E400002010B5044C55
:10324C000A4604482146FFF775FB204610BD00BF17
:10325C00A81D0020D63E000810B5044C0A460448B0
:10326C002146FFF767FB204610BD00BFA81D0020BC
:10327C00DB3E000810B5044C0A4604482146FFF713
:10328C0059FB204610BD00BFA81D0020E03E0008E1
:10329C0010B5044C0A4604482146FFF74BFB204668
:1032AC0010BD00BFA81D0020EB3E0008002814BF75
:1032BC000220002070476F230B604FF480630020C6
:1032CC00138070470020704700207047F0B50E4601
:1032DC0015461F46044687B0F0B9FDF72FF805F5E3
:1032EC0000321132950201A902A8CDE904570294CB
:1032FC000194FDF7CBF8BF02BC4204D3FDF730F8C4
:10330C00002007B0F0BD32592919002302200434E3
:10331C00FDF75AF8A4B2EFE70220F2E710B5044625
:10332C00084644B902F5003111319A02890200F0C5
:10333C0077FD204610BD0220FCE7002070470020DE
:10334C0070470020704708B5084602F5003111316E
:10335C009A02890200F064FD002008BD00687047E5
:10336C00034610B5024413F8010B11F8014B9342BC
:10337C00A0EB040001D00028F5D010BDC3680239C1
:10338C00023B8B4283BF4389006A01FB0300002090
:10339C0070470268890A5289036AB1FBF2F104335F
:1033AC00186830B1814202D3091A0833F8E758681B
:1033BC000844704702684AB1134613F8011B2029D0
:1033CC000BD93A29F9D1911C8B4202D04FF0FF3026
:1033DC0070471278302AF9D103600020704738B555
:1033EC000D46044618B9092000232B6038BD03682C
:1033FC00002BF8D01A78002AF5D08188DA8891420F
:10340C00F1D15878FFF79BFF10F00100EBD1236846
:10341C00EBE738B5436A05468B420C4611D00123C5
:10342C000A4600F128014078FFF78DFF002818BFED
:10343C004FF0FF3403460CBF034601236C62184661
:10344C0038BD0023FBE7000038B50023C3704FF0F4
:10345C00FF3343620546FFF7DCFF0446F8B94AF632
:10346C005523B5F826229A421BD195F82830EB2B20
:10347C0003D01833DBB2012B15D803220B4905F10D
:10348C005E00FFF76DFF40B10522094905F17A0096
:10349C00FFF766FF002818BF0224204638BD04241D
:1034AC00FBE70324F9E70224F7E700BF1D3F000800
:1034BC00213F000800232DE9F0430B6085B00D4639
:1034CC00FFF778FF061EC0F2CC806C4B53F82640F9
:1034DC00002C00F0C8802C60237853B90023F0B284
:1034EC0023706070FFF72DFF10F001050BD0032542
:1034FC0005E06078FFF723FF10F00105EED12846B8
:10350C0005B0BDE8F08329462046FFF79DFF022851
:10351C0040F08D806E46324604F5F77304F22E218E
:10352C0013F8040C10B11846FFF718FF10338B4238
:10353C0042F8040BF4D1002756F8049BB9F1000FA4
:10354C006DD049462046FFF77FFF012868D8B4F8B4
:10355C003330B3F5806F6ED1E68F26B904F14C0091
:10356C00FFF7FCFE064694F8383026615A1E012AF5
:10357C00A37060D894F835804246A4F80A80002ADB
:10358C0059D008F1FF3212EA080F54D1B4F83910AF
:10359C00CA0621814FD1B4F83B0018B904F1480098
:1035AC00FFF7DCFEE78E002F45D006FB03FE07EB92
:1035BC00511CF44484453ED8A0EB0C024245B2FBAE
:1035CC00F8F338D32E4A934235D84FF6F57293421E
:1035DC004BD94FF0030802334F440CEB0902B8F1FE
:1035EC00030FE360C4F81490A761226227D1B4F8EA
:1035FC0052200A431FD104F15400FFF7AFFE9B0089
:10360C00E06103F2FF33B6EB932F14D31D4A84F819
:10361C000080138801339BB21380E3806FE7032093
:10362C000137042F88D1042805D1012567E7042828
:10363C00FBD0012801D90D2561E7A94687E70029B0
:10364C00F9D0B8F1020F4FEA430218BFD2187744F1
:10365C0014BF03F001031346E76118BF03EB5203D9
:10366C00CFE70B254BE70C2549E740F6F5784345AA
:10367C008CBF4FF002084FF00108ACE7A81F0020E8
:10368C00F5FFFF0FAC1F002003284B8B04BF8A8A69
:10369C0043EA0243184670470129F8B506460D4621
:1036AC004FD9C36899424CD20378022B29D0032BF3
:1036BC0035D0012B45D101EB5104816901EB9421EB
:1036CC00FFF7A7FE10B14FF0FF30F8BDB169671CD2
:1036DC00C4F309043444304601EB972194F8284094
:1036EC00FFF797FE0028EED1C7F309073E4496F882
:1036FC002800EB0744EA00204CBF0009C0F30B0084
:10370C00E3E7816901EB5521FFF783FE0028DAD14D
:10371C0040F2FE3101EA45052E44308DD5E7816932
:10372C0001EB1521FFF775FE0028CCD1AD0006F199
:10373C00280005F47F752844FFF710FE20F0704038
:10374C00C3E70120C1E738B5002382680446056849
:10375C0003619AB92B78022B01D9EB696BB92B89D0
:10376C000BB9022038BDEB69A361A3696261002B20
:10377C00F7D028350020E561F4E71A466B8963B968
:10378C0011462068FFF788FF431C02460BD0012826
:10379C00E7D9EB689842F3D3E3E711462846FFF7E5
:1037AC00EDFDA061E1E70120DCE7F8B50669044610
:1037BC002036B6F5001F24BF00238361836905689A
:1037CC0063B1C6F3090707BB41690133836139B99A
:1037DC002B89B3EB561F18D80023A361042019E0E2
:1037EC006B89013B13EA96230FD12846FFF754FF50
:1037FC00012801460FD9431C0FD0EB689842EBD23D
:10380C0060612846FFF7BAFDA061002028353D44D1
:10381C002661E561F8BD0220FCE70120FAE7000013
:10382C002DE9F0470546D0F800800E4611F8013B13
:10383C002F2BFAD05C2BF8D00023AB6033781F2BE6
:10384C0050D94FF0203905F1200700210820DFF86E
:10385C002CA1C7F80490C7F80090C7F80790741E05
:10386C00C6F1020E0EEB040314F8012F202A08D91E
:10387C002F2A01D05C2A3FD1F05C2F283AD05C284B
:10388C0038D01E44002948D095F820302846E52B26
:10389C0004BF052385F82030212A34BF04230023DC
:1038AC0085F82B30D5F800A0FFF74DFF0446B8BBC8
:1038BC005046A969FFF7ADFD044688BBE86903785B
:1038CC006BB3C37A03F03F03AB71C47A14F00804F2
:1038DC0004D10B223946FFF743FD08B32846FFF706
:1038EC0064FFE3E78023284685F82B30BDE8F047DA
:1038FC00FFF729BF0133BFE72E2A30D088420CD9FD
:10390C00130644BF02F07F021AF80220DFF870C0E1
:10391C001CF8013B43B39A42FAD1062409E0042473
:10392C0095F82B3044B1042C03D113F0040F08BFCD
:10393C0005242046BDE8F0875A07FAD4AB79DB069C
:10394C000BD5296908F12803C1F3090198F8000087
:10395C001944FFF799FEA86077E70524E9E70B28DF
:10396C00DBD008210B207DE7A2F16103192B01D8D4
:10397C00203AD2B27A54013174E700BF363F0008C6
:10398C00273F00081FB5CDE9001003A8144603918A
:10399C00FFF710FD002814DB0B4A52F820300BB156
:1039AC0000211970019B0BB10021197042F82030D5
:1039BC0024B1684601A9FFF77DFD0446204604B0FA
:1039CC0010BD0B24FAE700BFA81F0020F0B58FB084
:1039DC00164605460191002834D002A901A8FFF72C
:1039EC0069FD044648BB029B019903A80393FFF7AA
:1039FC0017FF044608BB9DF93730002B1CDB9DF8E4
:103A0C00124014F010041BD1029F0A993878FFF76A
:103A1C003BFEA86001F11C00FFF7A0FCFB8806F040
:103A2C000106E8602C622F60AB802E746C74EC6124
:103A3C006C6120460FB0F0BD062400232B60F8E724
:103A4C000424FAE70924F4E72DE9F047C3680E468D
:103A5C00416904468B4238D0C1F30907CFB9D0F87D
:103A6C0000A08D0ABAF80A9009F1FF3818EA9128DB
:103A7C0002D1D1B98368A361A269DAF80C309A42F9
:103A8C0011D2DAF82030023A09FB023909EB0803AB
:103A9C00E361E36903F5003311339B02DB5D3370A3
:103AAC00636901336361002010E0FFF772FCB5FB22
:103ABC00F9F3226A0432116821B18B4202D35B1AEA
:103ACC000832F8E752681344D5E70120BDE8F087C7
:103ADC002DE9F74F0D4601A90446FFF780FC064679
:103AEC00E8B9667CDEB9236A002B5CD0691C38D13E
:103AFC001D46D4F80880022755F804BBB8F1000F16
:103B0C0028D040464FF0000A014681462068FFF756
:103B1C00C3FD01280AF1010A07D802266674304653
:103B2C0003B0BDE8F08F8046EBE7421C01D10126C3
:103B3C00F4E709F101098145E6D00237BB4521BF05
:103B4C002B4643F808ABC5F804801D46019BDB6887
:103B5C008342E8D8236A5F451F606FD800232B602F
:103B6C00DDE7E1688D4228BF0D466561002DD6D09A
:103B7C006F1E39462046FFF70CFC019A0146A061E6
:103B8C001046FFF7FBFB0028C7D0C5F30905002D35
:103B9C00C5D05189E369013901EA97210844834270
:103BAC00BDD0E061BBE7E16863698D4228BF0D467B
:103BBC006661002DB3D0019A5789BF02C3B1013B96
:103BCC006A1EB2FBF7F2B3FBF7F18A4210D37A42CA
:103BDC001340A1696361ED1AF1B900256369C3F360
:103BEC000903002B9BD0E369AB4298D0E56196E7C3
:103BFC00A168A161F0E73B4463612068FFF74CFDCD
:103C0C00431C0146A5EB070591D0012885D9019BE2
:103C1C00DB68834281D9A061BD426369EBD82B4438
:103C2C006361C5F30903002BD7D00198FFF7A6FBFE
:103C3C0000283FF472AF00EB9525CFE711266EE715
:103C4C001FB50446019140B303A901A8FFF732FC4C
:103C5C0070B9039B204601992360FFF7E1FDF0B991
:103C6C0094F92B30002B0CDBA379DB0603D4052055
:103C7C00002323600FE0039BE1691878FFF704FD34
:103C8C00A060039B2046DB88A380FFF75CFD042823
:103C9C00EDD00028ECD104B010BD0920FBE70428BE
:103CAC00E5D0E5E713B501A90446FFF798FB00B989
:103CBC00206002B010BDF7B50E4601A90446FFF70F
:103CCC008EFB054620B936B92046FFF73CFD05466C
:103CDC00284603B0F0BD04202768A16959B920BB60
:103CEC0000237372A2693ABB2046FFF75EFD0428DD
:103CFC0018BF0546ECE73846FFF78BFBA8B9E3691C
:103D0C001A78BAB1DB7AE52A03F03F03A37107D026
:103D1C002E2A05D00F2B03D023F02003082BDFD144
:103D2C002046FFF742FD0028D7D000230428A361CA
:103D3C00CDD1D5E70420F8E718464FF02E0CE269F8
:103D4C00571E17F8011F013020290ED0052908BF76
:103D5C00E521092802BF06EB030E01338EF809C0DA
:103D6C0006EB030E8EF8091001330B28E9D1002164
:103D7C0033445972D37A02F11C003372FFF7EEFA16
:103D8C003060D38AF380138BB380ADE7002103E05E
:103D9C000B4B5B58435004310A480B4B42189A4268
:103DAC00F6D30A4A02E0002342F8043B084B9A423D
:103DBC00F9D3FFF7A5F800F00FF8FEF71DFF7047D9
:103DCC00C03F00080000002020010020200100203E
:103DDC00B01F0020FEE7000070B500260C4D0D4C06
:103DEC00641BA410A64209D100F038F800260A4D35
:103DFC000A4C641BA410A64205D170BD55F8043BB7
:103E0C0098470136EEE755F8043B98470136F2E740
:103E1C00B83F0008B83F0008B83F0008BC3F000896
:103E2C000A44914200F1FF3300D1704710B511F8EC
:103E3C00014B914203F8014FF9D110BD03460244E6
:103E4C00934200D1704703F8011BF9E7034611F8C0
:103E5C00012B03F8012B002AF9D17047F8B500BFEC
:103E6C00F8BC08BC9E467047F8B500BFF8BC08BC4F
:043E7C009E467047A7
:103E800002030405060708090A0B0C0D0E0F10109B
:103E9000000006000000000000000000000000001C
:103EA00000000000030080834155544F52554E2EB0
:103EB00042494E0030006175746F72756E2E6269F2
:103EC0006E0000000000000000000102030406076D
:103ED000080900020102415A59410053544D500053
:103EE0004D534320436F6E666967004D534320492D
:103EF0006E7465726661636500008002021F0000D7
:103F000000415A59412020202053544D5020202058
:103F1000202020202020202020302E3520464154F3
:103F200000464154333200222A2B2C3A3B3C3D3E82
:103F30003F5B5D7C7F0043554541414141434545E1
:103F40004549494941414592924F4F4F5555594F27
:103F5000554F9C4F9E9F41494F55A5A5A6A7A8A97F
:103F6000AAABACADAEAFB0B1B2B3B4414141B8B998
:103F7000BABBBCBDBEBFC0C1C2C3C4C54141C8C934
:103F8000CACBCCCDCECFD1D145454549494949D9F8
:103F9000DADBDCDD49DF4FE14F4F4F4FE6E8E85514
:103FA00055555959EEEFF0F1F2F3F4F5F6F7F8F94B
:083FB000FAFBFCFDFEFF00001E
:043FB80031010008CB
:043FBC000D010008EB
:103FC0000100000010000000E51B0008311C000883
:103FD0005D1C00080000000000000000351D000806
:103FE0003F1D00080000000000000000000000006D
:103FF000B51B0008C11B0008CD1B0008D91B000819
:1040000009022000010104C0320904000002080670
:10401000500507058102400000070501024000002D
:1040200009022000010104C0320904000002080650
:104030005005070581020002000705010200020089
:104040000A060002000000400100000009072000ED
:10405000010104C0320904000002080650050705EA
:1040600081024000000705010240000000A24A044E
:10407000C9310008D531000849320008653200080E
:104080000D320008813200089D3200081201000242
:104090000000004083042A570002010203010000CF
:1040A000040309041A0300000000000000000000DF
:1040B0000000000000000000000000000000000000
:1040C000B9320008C3320008D13200084733000873
:1040D00029330008D9320008D5320008F93E00081B
:0400000508003D9919
:00000001FF
